S021000074706D5F4949435F64656D6F5F6B69745F32303134303530312E73726563E7
S214400000C05C00203D434000394340003943400037
S2144000103943400039434000394340000000000067
S21440002000000000000000000000000039434000CF
S2144000303943400000000000394340003943400047
S214400040394340003943400039434000394340007B
S214400050394340003943400039434000394340006B
S2144000603943400039434000000000005D1A40001C
S214400070791A4000000000003943400039434000F0
S21440008000000000000000003943400039434000B3
S214400090394340003943400039434000394340002B
S2144000A03943400039434000000000000000000093
S2144000B000000000394340003943400039434000C7
S2144000C03943400039434000B927400008B5054849
S2144000D0054B191A062900D808BD044A002AFBD049
S2144000E09047F9E73C0941003F0941000000000005
S2144000F008B50748074B191A8A1002EBD2735910F5
S21440010000D108BD044A002AFBD09047F9E700BF5B
S2144001103C0941003C0941000000000010B5064C77
S214400120237843B9FFF7D2FF044810B10448AFF331
S21440013000800121217010BDB81A00200000000088
S2144001403C09410008B5084B1BB108480849AFF3C5
S21440015000800848016811B1074A02B19047BDE8DF
S2144001600840FFF7C5BF00BF000000003C09410043
S214400170BC1A00203C0941000000000010B54FF0BA
S21440018000004FF03E0141F63533C0F24003984739
S21440019041F6A534C0F24004A0470028FCD041F602
S2144001A0D530C0F2400080474FF48061C4F20E0163
S2144001B043F60272C0F20F02CA6241F6E534C0F25C
S2144001C04004A0470028FCD04FF0010041F6FD4314
S2144001D0C0F24003984741F61550C0F240008047B1
S2144001E010BD00BF10B54FF46060C0F2277044F2F7
S2144001F05963C0F2400398474FF000004FF03E016D
S21440020041F63532C0F24002904741F6A534C0F27E
S2144002104004A0470028FCD041F6B530C0F240006C
S21440022080474FF48061C4F20E0143F60173C2F278
S21440023013038B6241F6C534C0F24004A047002841
S214400240FCD04FF0100041F69522C0F24002904795
S21440025044F2A140C0F24000804710BD41F66C53C6
S214400260C2F200031A7802F1FF30C1B2197070472B
S2144002704FF00000704700BF4FF00000704700BFCF
S21440028042F2BC33C2F20003187810F0800F20D040
S21440029000F06001202947D142F2BC32C2F200028F
S2144002A05378212B43D142F2BC30C2F20000C188C1
S2144002B007293FD142F2BC33C2F2000341F6D422B2
S2144002C0C2F200029A604FF0070098814FF001009A
S2144002D0704700F0600120292FD142F2BC32C2F2B2
S2144002E000025078202804D0222814BF0020012085
S2144002F0704742F2BC33C2F20003D88807281FD1A9
S21440030042F2BC31C2F2000140F24932C0F2400231
S2144003100A6141F6D423C2F200038B604FF0070017
S21440032088814FF0010070474FF0000070474FF053
S214400330000070474FF0000070474FF000007047D5
S2144003404FF00000704700BF704700BF70B582B0E6
S21440035041F68053C2F200031878002840F0E1804E
S21440036043F62101C0F24001884760B141F674541B
S214400370C2F20004248843F6A900C0F24000804739
S21440038084420DD1CDE041F67452C2F20002148888
S21440039043F69503C0F240039847844200F0C1807C
S2144003A0EFF31085D5F1010538BF002572B6BFF3CF
S2144003B05F8F40F2A011C2F200014FF000020A70B7
S2144003C041F6E023C2F200031C7841F6E420C2F274
S2144003D0000030F8141079BB41F6DC23C2F200036B
S2144003E01A8802F101021A8043F62100C0F240004A
S2144003F0804730B941F6DC21C2F200010B88632BFE
S2144004000DD943F62102C0F240029047A0B141F612
S214400410DC20C2F200000188B1F5487F0CD2002DE6
S2144004207FD040F2A013C2F200034FF001011970D2
S214400430BFF35F8F62B674E041F6DC26C2F2000678
S2144004404FF00002328042F21403C2F200031878E2
S21440045048B9944214BF0022012241F6E021C2F27C
S21440046000010A7003E0D4F1010438BF002441F6CD
S2144004708056C2F200064FF0010232703DB140F2A3
S214400480A015C2F200052A70BFF35F8F62B62546FC
S21440049041F6E423C2F2000333F81440B4F5A074E6
S2144004A018BF0124DCB143F62106C0F24006B0472F
S2144004B050B143F6A900C0F24000804741F674515F
S2144004C0C2F20001088011E043F69502C0F24002F5
S2144004D0904741F67453C2F20003188006E041F696
S2144004E07450C2F200004FF00001018005EB850613
S2144004F041F6E422C2F2000232F8153040F23D5096
S214400500C0F2400000904FF08100214641F6E824BA
S214400510C2F2000404EB861243F6A544C0F240043F
S214400520A04702B070BD00BF08B54FF0000040F2D3
S2144005304D33C0F24003984708BD00BF08B5E8B940
S21440054041F6E023C2F200031978D1F1010138BF29
S214400550002141F6E423C2F2000323F8110042F2E0
S2144005601401C2F20001087041F68052C2F2000245
S214400570107040F24D33C0F24003984708BD00BFAC
S21440058008B541F6DE23C2F200031A7802F1FF30C6
S214400590C1B219701B7841F2B153C0F2400398477C
S2144005A041F67850C2F200004FF00002027008BDDB
S2144005B008B54FF0000241F66C53C2F200031A70C1
S2144005C0114642F21800C2F20000028041F68453FF
S2144005D0C2F200034FF0A10018704FF02000587090
S2144005E05A809A804FF00200D8801A8141F6D42370
S2144005F0C2F200034FF4E1321A60197159714FF09C
S2144006000801997141F2A150C0F24000804758B1AC
S21440061041F66C53C2F200031A7802F10102D1B2DD
S21440062019704FF0010008BD4FF0000008BD00BF34
S214400630EFF3108372B6BFF35F8F40F2A012C2F2A0
S21440064000024FF00001117041F67050C2F20000F7
S214400650028890B241F67C51C2F20001097841F618
S2144006606852C2F2000232F81110081A4BB940F232
S214400670A013C2F200034FF001021A70BFF35F8F5F
S21440068062B6704708B540F23163C0F240039847FF
S214400690003018BF012008BD10B582B0EFF31083BC
S2144006A0D3F1010038BF002072B6BFF35F8F40F22F
S2144006B0A012C2F200024FF00001117041F67C54C5
S2144006C0C2F20004247842F21003C2F200031A7801
S2144006D06AB941F67051C2F200010B889AB241F6EF
S2144006E06851C2F2000131F8143093420ED9002806
S2144006F04CD040F2A010C2F200004FF0010202704F
S214400700BFF35F8F62B64FF0000041E041F6705293
S214400710C2F200024FF0000111808C4214BF00214B
S214400720012141F67C53C2F20003197042F21002D6
S214400730C2F200024FF00101117038B140F2A01031
S214400740C2F200000170BFF35F8F62B64FF0000048
S21440075040F28562C0F24002904704EB840440F2C7
S2144007609571C0F2400100914FF002004FF0010138
S21440077041F69053C2F2000303EB84124FF4A07389
S21440078043F6A544C0F24004A04701E04FF0000005
S21440079002B010BD10B582B0A0BB41F67C53C2F289
S2144007A000031878D0F1010338BF0023C1B94FEADF
S2144007B08304E31840F29570C0F240000090104663
S2144007C04FF0010141F69052C2F2000202EB831252
S2144007D04FF4A07343F6A544C0F24004A04711E08E
S2144007E041F66852C2F2000222F813104FF00000A1
S2144007F042F21001C2F20001087040F29963C0F262
S2144008004003984702B010BD38B54FF0000441F69B
S214400810DE23C2F200031C7041F68050C2F2000094
S214400820047042F21401C2F200010C7041F6E0225C
S214400830C2F20002147041F6E423C2F200032546D9
S2144008401C805C8041F67450C2F200000480204652
S21440085040F24D31C0F24001884742F21002C2F2E7
S2144008600002147041F67C53C2F200031C7041F63D
S2144008706850C2F20000048041F67051C2F2000196
S2144008800C80204640F29962C0F24002904798B1F0
S21440089041F6DE23C2F20003187800F10100C1B22F
S2144008A019701A78012A0AD14FF0010041F67853A0
S2144008B0C2F20003187038BD4FF0000038BD4FF04C
S2144008C0010038BD2DE9F04F83B041F6D423C2F283
S2144008D0000393F806B0BBF1090F14BF4FF0000BAE
S2144008E04FF0010B4FF0000A40F2A014C2F2000491
S2144008F0D146D04641F67055C2F2000541F67C57C7
S214400900C2F2000741F66856C2F2000641F6905021
S214400910C2F200000190EFF3108172B6BFF35F8F12
S21440092084F800802A8893B2387829B94FF00101BC
S2144009302170BFF35F8F62B636F810209A4209D80E
S21440094041F67851C2F2000108780028E3D14FF012
S214400950000A18E000EB800003EB80120199885CE7
S2144009604AEA000A03F101039BB22B80484640F254
S2144009709962C0F240029047BBF1000F03D04FEAA5
S2144009800A2ACB46C7E7504603B0BDE8F08F00BF03
S21440099008B54FF0000040F6C503C0F24003984744
S2144009A008BD00BF10B4EFF3108472B6BFF35F8F7C
S2144009B040F2A013C2F200034FF000021A7041F654
S2144009C0E020C2F20000017841F6E422C2F20002C2
S2144009D032F81130D1F1010138BF0021C8B232F8E7
S2144009E01000B3F5A07F1BD141F68052C2F2000240
S2144009F01278AAB942F21402C2F2000212787AB908
S214400A0042F21403C2F200034FF00100187041F6A0
S214400A10E022C2F2000211704FF4A0704FF00003C3
S214400A204CB940F2A012C2F200024FF00101117020
S214400A30BFF35F8F62B6C018C0F5207010BC704719
S214400A4008B540F6A513C0F240039847003018BFDB
S214400A50012008BD2DE9F0470D4641F6D423C2F2E9
S214400A6000039F79092F14BF002701274FF0000489
S214400A7040F64126C0F2400641F67859C2F20009D7
S214400A8040F2A018C2F200082046B04728B999F8AC
S214400A900030002BF8D1BDE8F087EFF3108072B637
S214400AA0BFF35F8F88F8004041F6E021C2F20001B4
S214400AB00B7841F6E422C2F2000232F8131003EB40
S214400AC0830C01EB8C1C41F6E82AC2F2000A0AF8B5
S214400AD00C5001F1010122F8131030B94FF001001B
S214400AE088F80000BFF35F8F62B61FB14FEA252536
S214400AF02746C9E74FF00100BDE8F08708B5014634
S214400B004FF0000040F65523C0F24003984708BD1A
S214400B1042F22003C2F20003186801684A88881827
S214400B20704700BF38B505460C4640F61133C0F254
S214400B3040039847024628782818824211D94178BF
S214400B40042911D0A14205D138BD417804290ED0E0
S214400B50A1420ED00378C0188242F6D84FF000006B
S214400B6038BD4FF0000038BD4FF0000038BD4FF0A4
S214400B70000038BD70B505460E4642F22803C2F264
S214400B8000031878002831D042F22001C2F200015A
S214400B900A6814682379AB422BD942F22C00C2F281
S214400BA00000046040F61131C0F24001884784429C
S214400BB022D26278042A0DD1A378AB420AD1E178DA
S214400BC0B14207D142F22C03C2F200031C604FF040
S214400BD0010070BD2278A418A042EAD842F22C0048
S214400BE0C2F2000004604FF0000070BD4FF00000FD
S214400BF070BD4FF0000070BD4FF0000070BD00BFEC
S214400C0008B542F2BC33C2F20003588800F07F00B9
S214400C1043F62901C0F24001884708BD2DE9F0415E
S214400C20804640F67533C0F24003984738B342F2E8
S214400C302C00C2F2000004684FF0050640F6253549
S214400C40C0F2400543F6C107C0F240072046314691
S214400C50A847044638B18078E178A288B84700288B
S214400C60F4D1BDE8F08142F22001C2F200010A68E8
S214400C70536853F8280001688847BDE8F0814FF074
S214400C800000BDE8F08100BF2DE9F04104464FF07A
S214400C90000140F67533C0F240039847002830D034
S214400CA042F22000C2F2000001684A6852F82480EE
S214400CB0D8F80C3098470146204640F67532C0F2C8
S214400CC04002904708B342F22C04C2F20004246863
S214400CD04FF0050640F62535C0F2400543F6FD17B1
S214400CE0C0F2400720463146A847044610B18078F7
S214400CF0B847F7E7D8F8040080474FF00100BDE852
S214400D00F0814FF00000BDE8F0814FF00000BDE8F4
S214400D10F08100BF08B543F24173C0F240039847E4
S214400D2008BD00BF70B542F22803C2F2000318782F
S214400D30D8B142F22001C2F200010A68136818795D
S214400D4098B14FF0000440F68946C0F2400642F2A1
S214400D502005C2F200052046B04704F10104E4B283
S214400D6029680A681379A342F5D842F22800C2F2ED
S214400D7000004FF00001017042F22603C2F2000369
S214400D804FF001021A8070BD38B542F22803C2F215
S214400D9000031878D8B142F22001C2F200010B6875
S214400DA01A68107998B14FF0000442F22005C2F25A
S214400DB000055B6853F824100A6902B1904704F1B5
S214400DC00104E4B22B6818680179A142F1D838BD15
S214400DD0F8B542F2BC33C2F200034FF000029A81EB
S214400DE01A615A61187810F0800F00F00A8342F2B8
S214400DF0BC32C2F20002D288002A40F00783F4E2F6
S214400E0010F01F0040F0D18042F2BC31C2F2000127
S214400E104B78062B18D0082B00F0B480002B40F0FF
S214400E20C480022A0DD142F22600C2F200004FF0E2
S214400E30020143F6B103C0F2400398474FF0010069
S214400E4058E24FF0000055E242F2BC30C2F20000D9
S214400E5042884FEA122101F1FF330E2B00F28380C5
S214400E60DFE803F0081538818181818181818181A5
S214400E7081812C0040F20413C2F200031968084630
S214400E80097843F6B102C0F2400290475BE0D0B228
S214400E9040F20413C2F2000319684A7C824265D9C4
S214400EA0924B596851F8302010465188904B9847DD
S214400EB0904881684FF002024A7044E040F20410C5
S214400EC0C2F200008268002A53D010465188884BF0
S214400ED0984738E0D1B2012909D011B102294BD147
S214400EE009E085484FF00401814A90472BE083484B
S214400EF04FF0090102E082484FF003014FF0000234
S214400F0001F1FF3404F001047E4B855C5D8002F104
S214400F100102012900F27F820DE0845C03F10203A6
S214400F2023F8024F02F10102845C5C8002F1010268
S214400F30D4B28C42F1D34FEA410101F1020171482B
S214400F4001706B4A904742F2BC30C2F20000C18842
S214400F5083898B4213D942F2BC32C2F2000291819D
S214400F604FF00100C6E14FF00000C3E14FF0000033
S214400F70C0E14FF00000BDE14FF00000BAE14FF095
S214400F800100B7E1012A0DD142F22800C2F200006A
S214400F904FF0010143F6B102C0F2400290474FF0D5
S214400FA00100A7E14FF00000A4E1012834D142F24D
S214400FB0BC31C2F200014B780A2B2DD1012A1FD139
S214400FC051480378FBB14B4C2479504D2D68296825
S214400FD00A79A2421AD920464FF000014C4B984756
S214400FE0B8B1686850F82410CA689047494B1870E2
S214400FF018464FF001013E4A90474FF0010079E114
S2144010004FF0000076E14FF0000073E14FF0000033
S21440101070E14FF000006DE1022840F06D8142F231
S214401020BC30C2F200004178002940F05B81022AC1
S2144010300DD1304A1079384B9847384908800846D1
S2144010404FF002012A4A90474FF0010052E14FF01C
S21440105000004FE110F01F0340F0C88042F2BC3160
S214401060C2F200014A7802F1FF30082800F2BE8042
S214401070DFE810F01E00BC003B01BC000900BC00CD
S214401080BC00BC00560042F2BC30C2F20000C18830
S21440109059B942F2BC33C2F2000340F60142C0F2F4
S2144010A040021A614FF0010024E14FF0000021E1B8
S2144010B042F2BC30C2F20000C18889B942F2BC3369
S2144010C0C2F200035A88012A0DD142F22600C2F22B
S2144010D00000018821F0020303804FF0010009E17F
S2144010E04FF0000006E14FF0000003E1040100204D
S2144010F0B1384000BC2300209C0100207C01002029
S2144011007801002088010020282000202020002090
S214401110750B40001C2000202D3A40002420002063
S21440112042F2BC32C2F20002D08800284CD143F6CC
S2144011306D01C0F240018847002848D042F2BC33D7
S214401140C2F200039A7840F20410C2F2000001682E
S2144011504B7C9A423EDC40F62552C0F24002904715
S21440116042F2BC30C2F20000817842F22803C2F25A
S2144011700003197089B301F1FF3340F20412C2F242
S2144011800002526802EBC30042F22001C2F20001A4
S214401190086052F833301A7912B34FF000042646EE
S2144011A040F61D45C0F240050F4620463146A8474A
S2144011B0C8B104F10104E4B2386801680B79A3426F
S2144011C0F3D84FF0010095E04FF0000092E04FF06A
S2144011D000008FE04FF000008CE04FF0010089E007
S2144011E04FF0010086E04FF0000083E0012B2DD148
S2144011F042F2BC31C2F200014A780B2A26D142F2B2
S214401200BC30C2F20000C288BAB942F22803C2F229
S21440121000031978A1B142F2BC35C2F200052C7920
S2144012206D88204640F68942C0F24002904750B151
S2144012302046E9B27F4B98475CE04FF0000059E00B
S2144012404FF0000056E04FF0000053E0022B53D121
S21440125042F2BC33C2F200035878012802D0032879
S21440126046D11CE042F2BC33C2F20003D88880B9B3
S21440127042F2BC31C2F200014A886AB942F2BC333B
S214401280C2F20003187943F69D31C0F24001884708
S21440129030E04FF000002DE04FF000002AE042F230
S2144012A0BC31C2F20001CA88B2B942F2BC33C2F2C3
S2144012B00003588898B942F2BC34C2F20004207940
S2144012C043F64161C0F240018847207943F67D22CB
S2144012D0C0F2400290470DE04FF000000AE04FF0A9
S2144012E0000007E04FF0000004E04FF0000001E08F
S2144012F04FF0000000287BD142F2BC30C2F2000022
S214401300017801F01F03012B2DD142F22802C2F2D0
S2144013100002107838B342F2BC35C2F200052C7990
S21440132042F22001C2F200010D682B681A79A242EF
S21440133019D920464FF0000140F67533C0F24003FD
S214401340984780B1686850F82450E9688847014655
S214401350204640F67532C0F24002904718B1AB685E
S2144013609847002847D142F2BC30C2F200000178CC
S21440137001F01F02022A41D142F22803C2F20003C2
S214401380187830B342F22001C2F200010B681A68A6
S214401390107908B34FF0000440F67536C0F24006A8
S2144013A042F22007C2F200075D6855F82450EB6809
S2144013B0984701462046B04788B1A968884788B90B
S2144013C004F10104E4B23B681A681179A142EBD8F3
S2144013D0F8BD4FF00000F8BD4FF00000F8BD4FF0EC
S2144013E00000F8BD4FF00100F8BD4FF00000F8BD1A
S2144013F04FF00100F8BD4FF00100F8BD4FF000007F
S214401400F8BD10F0600F7FF477AF23E610F0600F62
S2144014107FF472AFF4E464B2002C3FF47EAD03F187
S2144014200203845C5C8002F10102D4B28C42FFF479
S21440143074AD80E51D0C400042F23003C2F200035A
S2144014401868D8B9EFF3108189B972B6BFF35F8FC9
S21440145040F2A010C2F200004FF00001017042F2CC
S2144014603403C2F200034FF001021A7006E042F263
S2144014703403C2F200034FF000021A7042F230000A
S214401480C2F20000016801F101010160704700BF2F
S21440149042F23003C2F200031A6802F1FF301860CD
S2144014A0196879B942F23403C2F200031A784AB195
S2144014B040F2A010C2F200004FF001010170BFF3ED
S2144014C05F8F62B6704700BF2DE9F8430C469046E2
S2144014D048BB002A2BDD8F1842F2B436C2F2000613
S2144014E042F2AC35C2F200056FEA010907EB09008B
S2144014F000F0010930682B68984704F10104BC42AB
S21440150019D10DE030682B682146984704F1010454
S214401510214630682A68904704F10104BC42F1D164
S2144015204046BDE8F8834FF0FF30BDE8F8834FF003
S2144015300000BDE8F883B9F1000FE3D030682A68B0
S2144015402146904704F10104BC42DBD1E8E700BFE6
S21440155010B50C4642F23503C2F20003187808B9BB
S214401560087010BD40F69111C0F2400188472070C7
S21440157010BD00BF08B542F23503C2F2000318782A
S21440158058B1084640F6FD21C0F240018847002881
S2144015900CBF4FF0FF30002008BD4FF0000008BDE4
S2144015A04FF0010042F23503C2F200031870704754
S2144015B042F23503C2F200034FF000021A70704741
S2144015C070B54FF0000442F2B433C2F200031C6020
S2144015D042F2B030C2F2000041F27552C0F2400210
S2144015E0026042F2AC31C2F2000141F25155C0F203
S2144015F040050D6040F61556C0F24006B04741F231
S214401600F016C2F200063368986821464AF2DD3585
S214401610C0F24005A847306840682146A84770BDDC
S2144016202DE9F8430D46904600F1FF30022824D8B5
S21440163032B342F2B436C2F2000642F2B037C2F2D9
S21440164000074FF0000402F1FF3909F00109306845
S2144016503B68095D9847A0421ADA14E030683B6858
S214401660295D984700280EDB04F1010430683A688B
S214401670295D904700281DDA05E04FF0FF3404E06E
S2144016804FF0000401E04FF0FF342046BDE8F883F9
S21440169004F10104A045F8D0B9F1000FDED030685F
S2144016A03A68295D90470028EDDB04F10104A04527
S2144016B0D4D1EAE704F10104A045CFD1E5E700BF65
S2144016C00068C0F30320704710B50446A1F10E032E
S2144016D0012B1DD94FF00800C0F28000036842F28B
S2144016E03800C2F2000003604FF42060C4F20E00DF
S2144016F0C9B241F0B4414FEA022222F07F42201A9A
S21440170018BF012011439847A36803F00E0010BD90
S2144017104FF0FF3010BD00BF08B502684FEA012108
S21440172001F4706122F47063194340F2BD02C2F2C4
S2144017300002904708BD00BF0AB141667047016687
S214401740704700BF10B44264B1F1C05F30D008D8D3
S214401750B1F1006F14D0B1F1805F1ED000293BD0AC
S21440176039E0B1F1205F37D003D8B1F1005F32D114
S21440177029E0B1F1405F2FD0B1F1605F2BD12BE073
S214401780016F046F6FEA0203214019400167416F01
S214401790446F21400B4043671DE0036F42EA03015C
S2144017A00167436F416F0B4023EA0203436712E031
S2144017B0036F016F0B4023EA02030367436F42EA5D
S2144017C00301416707E0036F42EA03010167436F85
S2144017D042EA03014167426010BC7047416470476B
S2144017E0F8B504460D4616461F4641F2DD73C0F274
S2144017F04003984720462946069A41F23973C0F27C
S214401800400398470FB1256500E065650EB1256336
S21440181000E0656325612560F8BD00BF70B50446ED
S2144018200D46164641F2DD73C0F240039847204607
S214401830294606F0010241F23973C0F24003984748
S21440184016F00A0F14BF2562656216F0020F02D02A
S214401850C4F8805004E016F0080F18BFC4F884504F
S2144018606561256070BD00BFC06C7047806C704776
S214401870F0B583B00D464FEA501606F5001101F25A
S21440188007724FEA422605F0F044B4F1005F64D098
S2144018900AD8B4F1805F2CD0B4F1C05F43D0B4F125
S2144018A0006F40F09D800AE0B4F1405F7ED0B4F116
S2144018B0605F7BD0B4F1205F40F0928067E000F03C
S2144018C01F034FF0010404FA03F730464FF000615F
S2144018D03A4641F24573C0F240039847304639468F
S2144018E005EA040241F23973C0F2400398472046A5
S2144018F078E000F01F074FF0010404FA07F730467F
S2144019004FF080513A4641F24573C0F24003984743
S2144019103046394605EA040241F23973C0F24003C4
S214401920984720465EE000F01F004FF0010404FA9E
S21440193000F730464FF0C0513A4641F24573C0F288
S214401940400398473046394605EA040241F2397367
S214401950C0F240039847204644E000F01F024FF094
S214401960010404FA02F730464FF000513A4641F27D
S2144019704573C0F2400398473046394605EA0402AC
S21440198041F23973C0F24003984720462AE000F0FF
S2144019901F014FF00104304604FA01F12A4641F691
S2144019A01D03C0F24003984720461BE000F01F038B
S2144019B04FF0010405F0605205EA040000903046FE
S2144019C004FA03F1B2F1605F14BF00220122C5F3AE
S2144019D0800341F2E175C0F24005A847204601E089
S2144019E04FF0000003B0F0BD2DE9F04180460E46B2
S2144019F041F66903C0F2400398470546404641F623
S214401A006D01C0F240018847054014D0124C27466D
S214401A1054F80C0CB0420AD154F8081C294206D09F
S214401A2022683046904754F8083C25EA030504F1FE
S214401A301004002DEBD142F2B831C2F20001086822
S214401A4038B142F23C02C2F2000213680BB1404683
S214401A509847BDE8F08100BF4C20002008B54FF401
S214401A606060C4F20E004FF00B0141F6E913C0F27D
S214401A704003984708BD00BF08B54FF48050C4F2F5
S214401A800E004FF00C0141F6E913C0F240039847B0
S214401A9008BD00BF4FF48063C4F20E031A6B22F0F9
S214401AA0700108431863986E10F0080F07D010E0D6
S214401AB000F1FF33906E10F0080F38D009E04FF475
S214401AC000604FF48062C4F20E02916E11F0080F6F
S214401AD0EED04FF48061C4F20E010A6B22F003038D
S214401AE043F002000863896E11F0080F09D04FF0EA
S214401AF00000704703F1FF33916E11F0080F13D0CA
S214401B0009E04FF400634FF48062C4F20E02906E18
S214401B1010F0080FEED04FF0000070474FF0010075
S214401B2070474FF001007047013BF0D1F9E7581E6F
S214401B30CBD1F3E788B14FF48061C4F20E01086A56
S214401B404FF6FC72CFF6C86202404FF00203C0F276
S214401B50371342EA0300086270474FF48063C4F2CA
S214401B600E031A6A22F45C1020F0030242F45C1062
S214401B7040F001024FEA016142EA114018624FF418
S214401B808062C4F20E02936E13F0010FFBD04FF446
S214401B908061C4F20E01086A40F09B7242F48033C2
S214401BA00B6270474FF48063C4F20E03986E00F4E5
S214401BB0803070474FF48063C4F20E034FF00052FB
S214401BC09A6270474FF48063C4F20E03986E00F03A
S214401BD0020070474FF48063C4F20E034FF00002D9
S214401BE0DA6270474FF48063C4F20E03986E00F0DA
S214401BF004007047222835D81F2817D84FF4806134
S214401C00C4F20E018A694FF0010303FA00F31A404A
S214401C1093422AD04FF0010101FA00F04FF480625F
S214401C20C4F20E0210614FF0000070474FF480631C
S214401C30C4F20E03D3F80821A0F120004FF00101B2
S214401C4001FA00F10A40914212D04FF0010303FA24
S214401C5000F04FF48062C4F20E02C2F800014FF06A
S214401C60000070474FF0010070474FF0000070478B
S214401C704FF00000704700BF222835D81F2817D8DD
S214401C804FF48061C4F20E018A694FF0010303FAF3
S214401C9000F31A4093422AD14FF0010101FA00F0B6
S214401CA04FF48062C4F20E0250614FF0000070475D
S214401CB04FF48063C4F20E03D3F80821A0F120004D
S214401CC04FF0010101FA00F10A40914212D14FF063
S214401CD0010303FA00F04FF48062C4F20E02C2F829
S214401CE004014FF0000070474FF0010070474FF07E
S214401CF0000070474FF00000704700BF4FEA0020DA
S214401D0000F4706242F001014FF48063C4F20E03A7
S214401D10996370474FF48063C4F20E034FF080021D
S214401D201A6070474FF48063C4F20E031A6F20F0B7
S214401D307F4020F478010A431A67704742F2B003A6
S214401D40C2F20003187880F00100704708B54FF0E3
S214401D50150041F6F533C0F24003984708BD00BF72
S214401D60436823F47022426043684FEA014101F41D
S214401D70702213434360704710B4036913F0010F99
S214401D8020D00AE003F1FF33046914F0010F1ED09F
S214401D9003E0046914F0010FF4D0836842F2B404FF
S214401DA0C2F200042360406810F0020F1CBFC3F369
S214401DB0034010700B804FF0000001E04FF0010030
S214401DC010BC704743F6992404F1FF33E1E7013B2A
S214401DD0DFD1F3E730B4046914F0020F1FD00AE0F5
S214401DE004F1FF34056915F0020F1DD003E00569C4
S214401DF015F0020FF4D0446814F0020F07D04FEAF3
S214401E00024202F4702211430BB141F08071C1606E
S214401E104FF0000001E04FF0010030BC704743F641
S214401E20992505F1FF34E2E7013CE0D1F3E700BF36
S214401E3042B101F10C0150F8213043F0010240F864
S214401E402120704701F10C0150F8213023F00102A7
S214401E5040F82120704700BF42B101F10C0150F814
S214401E60213043F0020240F82120704701F10C0176
S214401E7050F8213023F0020240F82120704700BF7E
S214401E8001F10C0150F8213023F0F00340F82130E6
S214401E9050F821301A4340F82120704701F10C01D8
S214401EA050F8213023F47F4340F8213050F8213059
S214401EB043EA022240F82120704700BF10B401F1E7
S214401EC00C0150F82140A4B240F8214050F821407F
S214401ED04FEA036343EA0242144340F8214010BCF1
S214401EE0704700BF0346002849D142F2F802C2F2CA
S214401EF00002117800293CD0EFF3108172B6BFF390
S214401F005F8F40F2A012C2F20002107042F2A4327A
S214401F10C2F20002907800F1FF30907049BB40F268
S214401F20A012C2F200024FF001011170BFF35F8FA2
S214401F3062B61EE0EFF3108172B6BFF35F8F40F2D9
S214401F40A012C2F200024FF00000107042F2A4321B
S214401F50C2F20002907800F10100907049B940F258
S214401F60A012C2F200024FF001011170BFF35F8F62
S214401F7062B642F2F800C2F200000370704742F2C6
S214401F80F802C2F2000210780028D3D0F1E700BF72
S214401F9042F2BC32C2F200024FF0000313615361BA
S214401FA0938142F2FD00C2F200000370704700BF0A
S214401FB082B042F2FD03C2F200034FF005021A70EF
S214401FC04FF48040C4F20300016B0091009B43F045
S214401FD04F020092009941F020030093009A02635A
S214401FE04FF0000001900199132907D800BF019BCC
S214401FF003F101030193019A132AF7D902B07047FF
S21440200082B042F2FD03C2F200034FF003021A70A0
S2144020104FF48040C4F20300016B0091009B43F0F4
S2144020204F020092009941F010030093009A026319
S2144020304FF0000001900199132907D800BF019B7B
S21440204003F101030193019A132AF7D902B07047AE
S21440205008B542F2BC33C2F20003186900B18047AB
S21440206008BD00BFF0B58BB042F2FD03C2F20003DC
S2144020701878032828D14FF48041C4F203010A6B34
S2144020800092009B43F04F000090009A22F001031C
S2144020900093009808634FF000010191019A132ABB
S2144020A007D800BF019B03F1010301930198132851
S2144020B0F7D942F25101C0F24001884741F6917289
S2144020C0C0F24002904735E142F2FA01C2F2000106
S2144020D00B8842F2BC32C2F200029489E01A84B203
S2144020E0002C4FD142F2B802C2F2000211885B18AF
S2144020F098B2108042F2BC32C2F20002D1888142CD
S21440210005D042F2FC03C2F20003187830B342F224
S214402110FD03C2F200034FF0040018704FF48041F4
S214402120C4F203010A6B0292029B43F04F000290F6
S214402130029A22F001030293029808634FF00001CE
S2144021400391039A132A00F2F58000BF039B03F124
S2144021500103039303981328F7D9EBE042F2BC350A
S214402160C2F200056F69CFB1B847B8B142F2FA047F
S214402170C2F200044FF00002228042F2BC31C2F2AA
S21440218000018C893F2C09D942F2FC03C2F20003BD
S2144021904FF0000018704FF0400406E042F2FC0595
S2144021A0C2F200054FF001072F7042F2BC32C2F275
S2144021B00002936842F2FA01C2F200010F88EFF380
S2144021C01080D0F1010538BF002572B6BFF35F8F8F
S2144021D040F2A012C2F200024FF0000111704FF41C
S2144021E08040C4F20300026B12F0020F02D1002CB2
S2144021F031D152E04DB140F2A013C2F200034FF08D
S21440220001001870BFF35F8F62B642F2FD01C2F262
S21440221000014FF004020A704FF48043C4F20303F7
S214402220186B0490049941F04F020492049820F0F1
S21440223001010491049A1A634FF000030593059830
S214402240132877D800BF059901F101010591059A39
S214402250132AF7D96EE04FF48040C4F2030004F12D
S214402260FF3101F00101DB1913F8012B02654FF035
S2144022700102944260D810E0194611F8016B0665D9
S21440228002F1010202F0FF025B78036501F10103EF
S21440229002F10102D2B29442EED8E41942F2FA00B8
S2144022A0C2F2000004804FF48041C4F203010A6B7E
S2144022B00692069B43F04F000690069A42F01003A3
S2144022C00693069808634FF000010791079A132A71
S2144022D007D800BF079B03F101030793079813280D
S2144022E0F7D94FF48041C4F203010A6B0892089B69
S2144022F043F04F000890089A22F00103089308988C
S21440230008634FF000010991099A132A07D800BFC5
S214402310099B03F10103099309981328F7D94DB196
S21440232040F2A011C2F200014FF001020A70BFF362
S2144023305F8F62B60BB0F0BD49B200299CD013F84F
S214402340011B016502F10102D2B2944294D8A4E77F
S21440235038B50346447C04F01000C4B2C4B15C7C7B
S2144023606FF304145C741C6894B14FF48045C4F257
S214402370030502F10C0055F8200010F4806F18BFDA
S21440238042F08002012914BF002001209968A0472E
S21440239038BD00BF08B500F00F0202F1FF3000EB79
S2144023A0800142F2BC03C2F2000303EB81004FF00F
S2144023B0010142F25133C0F24003984708BD00BFC6
S2144023C010B485B000F1FF3202EB820142F2BC034A
S2144023D0C2F2000303EB81024FF48043C4F20303CE
S2144023E000F10C0153F8213003F04203422B0FD08A
S2144023F04FF48043C4F2030353F8213013F0020F26
S214402400537C12BF6FF38303012161F3830353743C
S214402410517C11F00C0F2BD14FF48043C4F20303D0
S21440242000F10C0153F821400094009C44F04F0406
S2144024300094009C24F002040094009C43F8214041
S2144024404FF0000301930199132907D800BF019B61
S21440245003F10103019301991329F7D970B30328B7
S2144024602CD0507C4FF0010363F38300507425E07A
S2144024704FF48043C4F2030300F10C0053F82010DD
S2144024800291029941F04F010291029921F04001D8
S2144024900291029943F820104FF000000390039BEE
S2144024A0132B07D800BF039901F10101039103984C
S2144024B01328F7D9537C6FF38303537405B010BCCD
S2144024C0704700BF2DE9F00F82B0054600F1FF3699
S2144024D006EB860242F2BC03C2F2000303EB82061E
S2144024E0727CC2F3810320B1032814BF022201226A
S2144024F001E04FF001029A4240F31581F268B46859
S214402500A24206D3737C03F04003DBB2002B00F0FC
S2144025100D81736803EB0208C2EB0409338A4FEA65
S21440252083534FEA9353994526BF99464FF0000C84
S2144025304FF0010C4A44F260B9F1070F40F289802F
S2144025404F4642464FF48043C4F20303A9F1080ABB
S214402550CAF3C00A98F800B005F1140443F824B052
S21440256098F801B043F824B098F802B043F824B085
S21440257098F803B043F824B098F804B043F824B071
S21440258098F805B043F824B098F806B043F824B05D
S21440259098F807B043F824B002F10802A7F10807FC
S2144025A0072F00F2DB804BE092F800A005F1140400
S2144025B043F824A092F801A043F824A092F802A081
S2144025C043F824A092F803A043F824A092F804A06D
S2144025D043F824A092F805A043F824A092F806A059
S2144025E043F824A092F807A043F824A002F1080478
S2144025F092F808A005F1140243F822A094F801A02E
S21440260043F822A094F802A043F822A094F803A02E
S21440261043F822A094F804A043F822A094F805A01A
S21440262043F822A094F806A043F822A094F807A006
S21440263043F822A004F10802A7F11007072FB3D8E9
S214402640A9F1080323F0070202F10802904409F0BA
S2144026500709B9F1000F24D0C1444FF48044C4F2B6
S21440266003046FEA080709EB070303F0010A434631
S21440267013F8017B05F1140244F822704B4561D1F2
S2144026800FE01A4612F8018B05F1140744F827802C
S2144026905F7805F1140344F8237002F101034B45BB
S2144026A0EFD1737CC3F3810202F1010262F383032C
S2144026B0737409B34FF48041C4F2030100F10C0077
S2144026C051F820300093009A42F04F030093009A4E
S2144026D042F010030093009A41F820204FF000008B
S2144026E001900199132907D800BF019B03F101030C
S2144026F00193019A132AF7D9BCF1000F03D0707CDE
S2144027006FF386107074F168B368994211D3727C87
S21440271002F04000C1B279B9737C43F08002727413
S2144027204FF000000AE04FF0010007E04FF00000D5
S21440273004E04FF0010001E04FF0010002B0BDE8B8
S214402740F00F7047BAF1000F9BD013F8017B05F1EC
S214402750140244F822704B4593D1A2E7BAF1000F19
S2144027603FF422AF92F800A005F1140443F824A0E9
S21440277092F801A043F824A092F802A043F824A0BF
S21440278092F803A043F824A092F804A043F824A0AB
S21440279092F805A043F824A092F806A043F824A097
S2144027A092F807A043F824A002F10802A7F1080710
S2144027B0072F3FF6F9AE43E72DE9F047B0B041F6B4
S2144027C03D53C0F24003984798B94FF48040C4F256
S2144027D00300C16911F4807F0BD172B6BFF35F8FDF
S2144027E040F2A011C2F200014FF000020A7000F061
S2144027F041BF4FF0220041F6F532C0F2400290470A
S2144028004FF48043C4F20303986910F4006F15D068
S2144028104FF48041C4F20301CB6913F4006F0DD02E
S2144028204FF48041C4F203014FF400630B6240F65C
S2144028308950C0F24000804700F01CBF4FF48040F3
S214402840C4F20300C16911F0010F00F0A7824FF4F3
S2144028508043C4F20303186B10F0040F00F01F818E
S21440286042F2FD00C2F2000002784AB142F2510341
S214402870C0F24003984741F69171C0F24001884744
S2144028804FF48040C4F20300026BC2F30A43082BA5
S21440289024D04FF48040C4F20300026B0292029BA5
S2144028A043F04F010291029A22F0040302930299E8
S2144028B001634FF000000390039A132A07D800BF25
S2144028C0039B03F10103039303991329F7D941F6B8
S2144028D0B170C0F24000804700F0CCBE4FF480405C
S2144028E0C4F20300016D42F2BC32C2F20002117023
S2144028F0036D5370016D9170036DD370016D11714E
S214402900036D5371016D9171006DD07140F6D152D7
S214402910C0F24002904720BB4FF48041C4F203010E
S2144029200A6B0492049840F04F030493049A22F0F2
S21440293004000490049B0B634FF000010591059A38
S214402940132A07D800BF059800F101000590059BA3
S214402950132BF7D941F6B171C0F24001884700F019
S21440296089BE42F2BC33C2F2000393F9001000293C
S21440297055DA4FF48040C4F20300036B0693069A80
S21440298042F04F010691069B43F08002069206995C
S21440299001634FF000000790079B132B07D800BF3A
S2144029A0079A02F10102079207991329F7D94FF4C3
S2144029B08040C4F20300036B0893089A42F04F012C
S2144029C00891089B23F004020892089901634FF08F
S2144029D000000990099B132B07D800BF099A02F103
S2144029E00102099209991329F7D94FF0000042F2E3
S2144029F0B803C2F20003188042F2FA02C2F20002A2
S214402A00108042F2FD01C2F200014FF00200087051
S214402A1042F26503C0F24003984700F02BBE4FF4E5
S214402A208040C4F20300026B0A920A9B43F04F01B7
S214402A300A910A9A22F004030A930A9901634FF016
S214402A4000000B900B9A132A07D800BF0B9B03F18C
S214402A5001030B930B991329F7D942F2BC30C2F20B
S214402A600000C28832B942F20101C0F240018847F4
S214402A7000F000BE4FF0000342F2B801C2F200017F
S214402A800B8042F2FA00C2F20000038042F2FD03DD
S214402A90C2F200034FF001021A7000F0EBBD4FF493
S214402AA08041C4F203010B6B13F0010F06D042F2D3
S214402AB06501C0F24001884700F0DCBD4FF480401D
S214402AC0C4F20300016B11F0020F00F05F8142F286
S214402AD0FD01C2F200010A78012A33D0022A01D051
S214402AE0042A05D142F25102C0F24002904704E067
S214402AF041F6B170C0F2400080474FF48043C4F2C4
S214402B000303196B0C910C9840F04F020C920C99F1
S214402B1021F002000C900C9A1A634FF000030D93BC
S214402B200D99132907D800BF0D9800F101000D90AC
S214402B300D9A132AF7D941F69173C0F2400398478D
S214402B4000F098BD4FF48044C4F20304266BC6F3ED
S214402B500A4442F2BC33C2F20003988942F2FA01B8
S214402B60C2F200010E8832199042AEBFA4B2C6EB44
S214402B70000084B242F2BC33C2F200039868821965
S214402B80A4B34FF48040C4F2030004F1FF3505F0CF
S214402B900105016D02F8011B4FF00101A142C0F092
S214402BA07C850DE0056D134603F8015B056D557099
S214402BB003F1010201F1020101F0FF01A142F1D34C
S214402BC0A619B6B242F2FA02C2F200021680402CB1
S214402BD00CD142F2BC30C2F20000C18842F2B803C7
S214402BE0C2F200031A889019814253DC42F2BC308C
S214402BF0C2F20000868142693AB3904728BB41F64C
S214402C00B171C0F2400188474FF48040C4F20300DF
S214402C10026B0E920E9B43F04F010E910E9A22F0DD
S214402C2002030E930E9901634FF000000F900F9A27
S214402C30132A00F21F8500BF0F9B03F101030F9379
S214402C400F991329F7D900F015BD4FF48043C4F20D
S214402C500303196B1091109840F04F021092109990
S214402C6021F002001090109A1A634FF0000311935F
S214402C701199132907D800BF119800F1010011904F
S214402C80119A132AF7D942F20103C0F2400398473B
S214402C9000F0F0BC42F2BC31C2F200018B89B34274
S214402CA053D1C04A506910BBBF4988474FF4804053
S214402CB0C4F20300026B1292129B43F04F01129132
S214402CC0129A22F002031293129901634FF0000009
S214402CD01390139A132A00F2CD8400BF139B03F17E
S214402CE00103139313991329F7D900F0C3BC804707
S214402CF010BBAD4B98474FF48041C4F20301086BBC
S214402D001490149A42F04F031493149820F0020241
S214402D101492149B0B634FF00001159115981328DD
S214402D2000F2A88400BF159A02F101021592159B85
S214402D30132BF7D900F09EBC9C4A9D4B18881188EF
S214402D40401810804FF000021A804FF48043C4F2BF
S214402D500303196B1691169840F04F021692169977
S214402D6021F002001690169A1A634FF0000317934C
S214402D701799132900F27E8400BF179800F10100CE
S214402D801790179A132AF7D900F074BC4FF4804373
S214402D90C4F20303186B10F0080F4DD14FF4804374
S214402DA0C4F20303996911F0020F19D04FF4804022
S214402DB0C4F20300436B13F0420F6DD14FF48041D1
S214402DC0C4F20301486B10F0010F40F0F3804FF45B
S214402DD08043C4F20303596B11F0080F40F0BE82E3
S214402DE04FF48040C4F20300836913F0040F19D0F7
S214402DF04FF48041C4F20301886B10F0420F53D168
S214402E004FF48043C4F20303996B11F0010F40F076
S214402E10D9804FF48040C4F20300836B13F0080F50
S214402E2040F09F824FF48041C4F20301886910F05D
S214402E30080F00F0CF821FE04FF48041C4F2030138
S214402E400A6B0092009B43F04F000090009A22F0DD
S214402E5008030093009808634FF000010191019A1F
S214402E60132A00F2078400BF019B03F1010301937C
S214402E7001981328F7D9FDE34FF48043C4F20303C7
S214402E80D96B11F0420F7CD04FF003084FF0020789
S214402E904FF0080944460EE04FF001084FF0000797
S214402EA04FF00209444606E04FF002084FF0010793
S214402EB04FF00409444607EB870542F2BC06C2F2CF
S214402EC0000606EB8505D5F808E0E9682F8A4FEA44
S214402ED087504FEA90566A6852184FF48043C4F2BF
S214402EE0030304F10C0753F82700C0F30A47002FEA
S214402EF000F0B583C1EB0E00B84200F29383C5F8EC
S214402F000CE0002840F09483B0E304F1140E51F82E
S214402F102EC002F803C003F1010304F1140E51F869
S214402F202EC002F803C003F101038342EDD34046AE
S214402F3042F2C132C0F240029047BAF1000F02D1CD
S214402F40BE4240F297834FF48040C4F2030004F13F
S214402F500C0450F8241011F0200F40F08B834FF4EF
S214402F608043C4F20303C3F81490EA68AA60284674
S214402F704FF00001424642F25133C0F240039847B8
S214402F8078E34FF48040C4F20300C36B13F0010FA4
S214402F9000F0D9814FF003064FF002044FF00807C7
S214402FA0354616E0BC230020B11F4000B820002064
S214402FB0FA2000204FF001064FF000044FF00207C1
S214402FC0354606E04FF002064FF001044FF0040786
S214402FD0354604EB840442F2BC01C2F2000101EB28
S214402FE08404637CC3F3810000F1030060F3830331
S214402FF06374D9B201F02002D3B2002B00F0928065
S21440300011F00C0F45D04FF48040C4F2030005F198
S2144030100C0250F822101891189B43F04F0118915B
S214403020189B43F010011891189B40F822304FF03F
S21440303000001990199A132A07D800BF199901F170
S21440304001011991199B132BF7D94FF48040C4F214
S214403050030005F10C0550F825201A921A9941F004
S2144030604F031A931A9A22F001011A911A9B40F8BC
S21440307025304FF000001B901B9A132A00F2FA826C
S21440308000BF1B9901F101011B911B9B132BF7D924
S214403090F0E24FF48043C4F2030305F10C0053F80A
S2144030A020101C911C9A42F04F011C911C9A22F051
S2144030B001011C911C9A43F820204FF000031D93F9
S2144030C01D98132807D800BF1D9901F101011D91D5
S2144030D01D9A132AF7D94FF48043C4F2030305F12F
S2144030E00C0553F825001E901E9941F04F021E9283
S2144030F01E9840F020011E911E9A43F825204FF05E
S21440310000031F931F98132807D800BF1F9901F18B
S21440311001011F911F9A132AF7D9637C6FF3451359
S2144031206374A7E211F0800F0ED0607C6FF3C71077
S2144031306074E168A16020464FF00001324642F2DA
S2144031405133C0F240039847E268A068824240D3B9
S214403150617C11F04C0F3CD1EFF3108072B6BFF398
S2144031605F8F40F2A012C2F200024FF000011170D1
S2144031704FF48043C4F203035F6130B9B9484FF05F
S21440318001020270BFF35F8F62B64FF48041C4F213
S214403190030105F10C0551F825302093209840F0A6
S2144031A04F022092209B23F001002090209A41F865
S2144031B025204FF000012191219B132B00F25A82CB
S2144031C000BF219800F101002190219A132AF7D9D7
S2144031D050E2002E00F08B80032E00F08880607C4A
S2144031E010F00C0F49D04FF48040C4F2030005F1B4
S2144031F00C0350F823102291229A42F04F0122915C
S214403200229A42F010012291229A40F823204FF051
S21440321000002390239B132B07D800BF239901F16E
S21440322001012391239A132AF7D94FF48040C4F220
S214403230030005F10C0550F825302493249941F0FD
S2144032404F022492249B23F001012491249A40F8B3
S21440325025204FF000002590259B132B07D800BF54
S214403260259901F101012591259A132AF7D930466F
S2144032704FF000017C4B9847FCE130464FF001018F
S214403280794A904758B9617C6FF3C7116174E36817
S214403290A36020464FF000013246744B98474FF4E7
S2144032A08040C4F2030005F10C0550F82520269214
S2144032B0269941F04F032693269A22F00101269143
S2144032C0269B40F825304FF000002790279A132A77
S2144032D007D800BF279901F101012791279B132B9F
S2144032E0F7D930464FF000015F4A9047C2E130467A
S2144032F04FF0010142F2C543C0F2400398474FF4F5
S2144033008040C4F2030005F10C0550F825202892B1
S214403310289941F04F032893289A22F001012891DA
S214403320289B40F825304FF000002990299A132A10
S21440333000F2A08100BF299901F101012991299B42
S214403340132BF7D996E14FF48041C4F20301C86BC2
S21440335010F0080F18BF032205D13BE04FF00102E2
S21440336001E04FF002024FF48043C4F2030302F13F
S2144033700C0153F821002A902A9840F04F002A90DA
S2144033802A9820F008002A902A9843F821004FF007
S21440339000032B932B99132907D800BF2B9800F1D5
S2144033A001002B902B9B132BF7D94FF48040C4F28F
S2144033B0030002F10C0250F8221001F4E063B3F56A
S2144033C0807F00F057814FF48040C4F2030050F8ED
S2144033D022304FE14FF48040C4F20300816911F47B
S2144033E0005F07D04FF48042C4F20302D36913F45F
S2144033F0005F1FD14FF48040C4F20300816911F48E
S214403400007F07D04FF48042C4F20302D36913F41E
S214403410007F0FD14FF48040C4F20300816911F45D
S214403420806F25D04FF48042C4F20302D36913F470
S214403430806F1DD04FF48044C4F203044FF41851FB
S214403440216261614FF0010041F6E563C0F240033E
S21440345098474FF48070206220614FF400622261EA
S21440346008E100BFA0010020C524400051234000D1
S2144034704FF48040C4F20300816911F4807F27D066
S2144034804FF48042C4F20302D36913F4807F1FD006
S2144034904FF48043C4F203034FF4807018625861BF
S2144034A04FF400521A614FF4007119614FF4806076
S2144034B018614FF0220041F67943C0F24003984726
S2144034C04FF0000041F6E562C0F240029047D1E07E
S2144034D04FF48040C4F20300C16911F4805F00F0ED
S2144034E0C9804FF48044C4F203044FF480552562EB
S2144034F042F2BC06C2F2000630464FF001010A46D0
S21440350042F25135C0F24005A84706F114004FF08C
S21440351001014FF00202A84706F128004FF00101D2
S2144035204FF00302A84740F62552C0F240029047AB
S214403530636823F001006060616821F00202626007
S214403540A36843F48070A060A16821F07F02A26067
S214403550236B2C932C9840F04F012C912C9A22F4FC
S214403560074323F080002C902C9941F400422C9283
S2144035702C9B23634FF000002D902D99132907D8DC
S21440358000BF2D9A02F101022D922D9B132BF7D9E5
S2144035904FF48040C4F20300016B2E912E9A42F005
S2144035A04F032E932E9941F400422E922E9B036396
S2144035B04FF000002F902F99132907D800BF2F9A5D
S2144035C002F101022F922F9B132BF7D9EFF31080B5
S2144035D072B6BFF35F8F40F2A012C2F200024FF005
S2144035E0000111704FF48043C4F203034FF0010210
S2144035F01A6138B940F2A010C2F200000270BFF360
S2144036005F8F62B641F69173C0F2400398474FF41D
S2144036108040C4F203004FF4807202614FF40061B0
S214403620016127E07B18EB6038464FF0000A01E066
S2144036304FF0010A4FF48041C4F203014FF00003FB
S21440364000F1FF3C0CF0010E04F1140C51F82CC0B4
S21440365002F803C003F1010383420ED367E44046F9
S21440366042F2C131C0F24001884769E44046124AFE
S214403670904768E430B0BDE8F087BEF1000F3FF4F5
S21440368044AC04F1140E51F82EC002F803C003F106
S21440369001038342FFF439AC49E46DB2002D3FF498
S2144036A081AA036D02F8013B01F10101C9B2A142B2
S2144036B0FFF478AAFFF784BAC123400010B5EFF3B1
S2144036C0108472B6BFF35F8F40F2A013C2F20003BD
S2144036D04FF000021A704FF0010041F6E561C0F26B
S2144036E0400188474FF0220041F6F533C0F24003D0
S2144036F098474FF48040C4F20300426F22F4807132
S2144037004167436F43F4007242674FF48071016132
S2144037104FF4005303614FF4007202614FF480612E
S21440372001614FF4006303614CB940F2A010C2F24D
S21440373000004FF001020270BFF35F8F62B610BD0B
S21440374070B5EFF3108672B6BFF35F8F40F2A015E8
S214403750C2F200054FF000042C704FF0220041F6F4
S214403760F533C0F24003984740F27D10C0F2400067
S21440377080474FF46141CEF200014FF0500281F88D
S21440378022234FF004034B6042F2BC00C2F200001A
S214403790417C01F0830264F3C712427490F82530EE
S2144037A003F0830164F3C71180F8251090F83920A0
S2144037B002F0830364F3C71380F839304FF4802057
S2144037C041F62551C0F24001884742F2F800C2F265
S2144037D000000470EFF3108272B6BFF35F8F2C7058
S2144037E042F2A433C2F20003D97801F10101D97044
S2144037F02AB94FF001022A70BFF35F8F62B643F2D8
S214403800BD63C0F2400398474EB940F2A011C2F2E1
S21440381000014FF001000870BFF35F8F62B670BDC5
S2144038204FF00000704700BF4FF48043C4F20303DC
S2144038305A6822F0010159609A6822F480719960B2
S214403840024690B14FF48040C4F20300836802F011
S2144038507F0223F07F010A438260836843F48072CC
S2144038608260416841F00103436070474FF48043F3
S214403870C4F20303586810F0010F07D04FF480419C
S214403880C4F203018A6802F07F0070474FF00000E0
S214403890704700BF4FF48043C4F2030318684FEAF2
S2144038A040514FEA515070474FF00000704700BFFC
S2144038B042F2BC33C2F2000398609981704700BF61
S2144038C030B482B000F00F03032B00F283804FF435
S2144038D08044C4F2030403F10C0554F8254014F464
S2144038E0004F7AD101F00304012C03D1002B77D08E
S2144038F0032B78D0A3F10404E4B2012C8CBF4024FF
S2144039004FF40074944271DB03F1FF3505EB8504F8
S21440391042F2BC05C2F2000505EB8404258A62F338
S21440392009052582627C02F07F056FF345156574B4
S214403930C00903D0EAB26FF3830262744FF4804248
S214403940C4F20302956A4FF0010404FA03F42543D7
S2144039509562956A25EA0404946203F10C0452F8D1
S21440396024200092009A42F04F020092009A22F4DD
S214403970074222F08002009240B141F004024FEA32
S214403980022000F4E06141F4004105E04FEA0121E5
S21440399001F4E06040F40041009A41EA02000090E1
S2144039A000994FF48042C4F2030203F10C0342F83C
S2144039B023104FF0000301930198132819D800BF35
S2144039C0019901F101010191019A132AF7D94FF0AB
S2144039D0010010E04FF000000DE04FF000000AE05C
S2144039E04FF0000007E04FF0000004E04FF000000A
S2144039F001E04FF0010002B030BC704708B500F05F
S214403A000F03032B10D84FF48042C4F2030203F195
S214403A100C0352F8231021F4004142F8231042F2DE
S214403A209533C0F24003984708BD00BF00F00F0032
S214403A3003281FD800F1FF3303EB830142F2BC0298
S214403A40C2F2000202EB8103597C01F02002D3B29D
S214403A506BB94FF48041C4F2030100F10C0051F8F9
S214403A60200010F0280F0CBF0020012070474FF0B8
S214403A70010070474FF00000704700BF10B483B09D
S214403A8000F00F02032A7DD8EFF31081D1F1010137
S214403A9038BF002172B6BFF35F8F40F2A013C2F268
S214403AA000034FF000041C7010F0800F33D002F17A
S214403AB0FF3000EB800342F2BC04C2F2000404EB89
S214403AC083034FF48040C4F2030002F10C0450F824
S214403AD0240010F0100F04D1587CC0F38100012858
S214403AE019DD587C40F0200058744FF0010303FA6B
S214403AF002F24FF48040C4F203000261002944D031
S214403B004FF0010040F2A011C2F200010870BFF36E
S214403B105F8F62B63EE04FF48043C4F2030302F187
S214403B200C0053F820400094009C44F04F0400944E
S214403B30009C44F020040094009C43F820404FF042
S214403B40000301930198132807D800BF019B03F197
S214403B500103019301981328F7D94FF0010303FAA4
S214403B6002F24FF48040C4F20300026181B14FF08C
S214403B70010040F2A011C2F200010870BFF35F8F4F
S214403B8062B607E04FF0000004E04FF0010001E0AD
S214403B904FF0010003B010BC704700BF10B584B0B2
S214403BA000F00F00032873D800F1FF3202EB8201C9
S214403BB042F2BC03C2F2000303EB8102517C6FF376
S214403BC0451151744FF48043C4F2030300F10C01D5
S214403BD053F8213013F0200F5DD04FF48043C4F2E9
S214403BE0030353F821400094009C44F04F04009493
S214403BF0009C24F020040094009C43F821404FF0A1
S214403C0000010191019B132B07D800BF019C04F1D2
S214403C100104019401991329F7D94FF48043C4F263
S214403C2003039C6A4FF0010101FA00F10C439C62C9
S214403C309C6A24EA0101996200F10C0053F82010B6
S214403C400291029941F04F010291029921F0080138
S214403C500291029943F820104FF000000390039B16
S214403C60132B07D800BF039901F101010391039874
S214403C701328F7D9537C03F01001C8B270B1537CB7
S214403C806FF304135374126890474FF0010007E037
S214403C904FF0000004E04FF0010001E04FF001005B
S214403CA004B010BD2DE9F04100F00F04032C00F2E3
S214403CB0AF804FF48045C4F2030504F10C0655F876
S214403CC0265015F4004F00F0A78004F1FF3606EBAF
S214403CD0860742F2BC05C2F2000505EB87056E7CFE
S214403CE006F02007FFB2002F40F09A804FF480473E
S214403CF0C4F2030704F10C0C57F82C7017F0200F91
S214403D0040F09280EFF31087D7F1010738BF0027C5
S214403D1072B6BFF35F8F40F2A01CC2F2000C4FF0A9
S214403D2000088CF8008006F01006F6B25EB1002F50
S214403D307ED04FF001038CF80030BFF35F8F62B641
S214403D404046BDE8F0816E7C46F010066E744FB17A
S214403D5040F2A016C2F200064FF001073770BFF3DC
S214403D605F8F62B66A60AB604FF00002EA60069A08
S214403D702A6021B9D3F1010138BF002101E04FF09C
S214403D8001016B7C61F386136FF3C7136B74EFF31B
S214403D90108572B6BFF35F8F40F2A011C2F20001E9
S214403DA04FF000020A704FF0010101FA04F14FF49F
S214403DB08043C4F20303196110F0800F1BD04FF408
S214403DC08040C4F2030004F10C0250F8221011F0B7
S214403DD0110F10D120464FF0010142F2C543C0F208
S214403DE04003984738B120464FF0000142F2C542A2
S214403DF0C0F240029047FDB94FF0010040F2A011DA
S214403E00C2F200010870BFF35F8F62B6BDE8F08172
S214403E104FF00000BDE8F0814FF00000BDE8F081B3
S214403E204FF00000BDE8F0814FF00000BDE8F081A3
S214403E304FF00000BDE8F0814FF00100BDE8F08192
S214403E402DE9F04184B000F00F04032C00F2E1802D
S214403E50EFF3108272B6BFF35F8F40F2A013C2F248
S214403E6000034FF00001197025464FF0010606FA90
S214403E7004F64FF48043C4F203035E614AB940F24D
S214403E80A011C2F200014FF001020A70BFF35F8F2B
S214403E9062B610F0800F0CD14FF48040C4F203009D
S214403EA004F10C0350F8231011F0420F40F08E80BE
S214403EB09DE04FF48043C4F2030304F10C0253F830
S214403EC0221011F0100F50D06CB3032C2BD04FF4AF
S214403ED08040C4F2030050F8223023F0100140F82E
S214403EE022104FF48042C4F2030205F10C0052F84F
S214403EF0203013F0100FF8D14FF48040C4F2030086
S214403F0004F10C0250F8221041F0100340F8223021
S214403F104FF48040C4F2030005F10C0250F8221022
S214403F2011F0100FF8D04FF48043C4F2030304F1AD
S214403F300C0053F820200092009941F04F02009266
S214403F40009921F010020092009943F820104FF09B
S214403F50000301930198132807D800BF019A02F185
S214403F600102019201991329F7D94FF48043C4F214
S214403F70030304F10C0053F820200292029941F00A
S214403F804F020292029921F001020292029943F8EE
S214403F9020104FF0000303930398132807D800BF60
S214403FA0039A02F10102039203991329F7D904F107
S214403FB0FF3303EB830042F2BC02C2F2000202EB84
S214403FC080014B7C6FF383034B7410E042F2C138A0
S214403FD0C0F240084FF48047C4F203072046C0476B
S214403FE005F10C0257F8220010F0420FF6D14FF4BC
S214403FF08040C4F20300826A46EA02018162836A14
S21440400023EA06068662204642F29532C0F2400215
S214404010904704B0BDE8F08110B420F4FF5020F083
S2144040201F006FEA51316FEA4131144602B1106009
S21440403003B1196010BC704730B4B1F5A00F0CD373
S214404040A1F5A004C4F34F254FEAC1514FEAD15120
S2144040504FF44064C4F20E040BE0A1F58005C5F3AE
S2144040604F254FEAC1514FEAD1514FF42064C4F274
S2144040700E0400B1046002B1158003B1198030BC53
S214404080704700BF10B44FF42064C4F20E04A04240
S2144040900CBF01F5005101F5205102EB412203B15E
S2144040A01A6010BC704700BF30B583B003460C465C
S2144040B0032920D84FEAC0524FEAD250F0B901A89F
S2144040C019460DF102024FF0000344F23905C0F2E2
S2144040D04005A847BDF8023001984FF0070144EA72
S2144040E0030241F2C963C0F240039847002814BF58
S2144040F01020002004E04FF0110001E04FF01100C6
S21440410003B030BD2DE9F04F89B004468A4690464C
S214404110019307A821460DF11A0206AB44F2390472
S214404120C0F24004A047079841F2C163C0F2400382
S2144041309847039007984FF0060141F21972C0F273
S21440414040029047B8F1000F61D044F285008346A4
S214404150C0F2400B42F20017C2F200074AF247395B
S214404160C0F2400941F2C961C0F240010291BDF877
S2144041701850C5F50074A04538BF44460798BDF8AA
S2144041801A104FF0000205ABD847BDF81860059DE1
S214404190384629463246C847B81951462246C84787
S2144041A0A319C6F50072121B7119F818091992B2B4
S2144041B0C8472B4605F500707D1B59591A4642F8EC
S2144041C0041B5159596002F104038342F5D101980A
S2144041D038B107984FF00301BDF81A20029B984764
S2144041E006E007984FF00101BDF81A20029B984759
S2144041F0B0B9A244BDF81A2002F10102ADF81A2067
S2144042004FF00001ADF81810B8EB0408AFD107988E
S214404210039941F21973C0F2400398474FF00000EB
S21440422009B0BDE8F08F00BF70B584B015461C4697
S21440423002AA01AB44F21906C0F24006B0470DB1DF
S214404240029B2B600CB10198206003A802990DF1E7
S21440425002024FF0000344F23904C0F24004A04783
S2144042604FF0000001996A460346A047BDF8022079
S214404270BDF80010914216D94FF0080641F2C965C4
S214404280C0F2400503983146A847044668B9BDF8D1
S214404290022002F1100292B2ADF80220BDF80030C2
S2144042A09342EFD801E04FF00004204604B070BDC2
S2144042B070B584B015461C4602AA01AB44F21906F6
S2144042C0C0F24006B0470DB1029B2B600CB101987E
S2144042D0206003A802990DF102024FF0000344F259
S2144042E03904C0F24004A0474FF0000001996A46E6
S2144042F00346A047BDF80220BDF80010914216D9EB
S2144043004FF0090641F2C965C0F2400503983146B0
S214404310A847044668B9BDF8022002F1100292B2DE
S214404320ADF80220BDF800309342EFD801E04FF0E0
S2144043300004204604B070BD00BFFDE738B5504BC2
S214404340504A9A4229D9504D4D4BAB4248D203F180
S21440435004004E4A111A21F003044FF0000340F2C5
S2144043600002C2F2000240F63C11C0F2410104F1E4
S2144043700400C4F380045D589D5003F10403834257
S2144043806DD12DE05D589D5003F104035C589C5060
S21440439003F104038342F5D122E03948394981428A
S2144043A01ED241F6B825C2F2000540F20004C2F221
S2144043B00004374B2A1B13D0A2F10400C0F380013F
S2144043C09C5845F8044D043A52D109E0995845F8AE
S2144043D0041DA2F104029C5845F8044D043AF5D158
S2144043E000BF2C4B2C4A9A421ED2A2F104052B4900
S2144043F0481B20F0030441F6B823C2F20003E2183B
S2144044004FF00001501BA0F10400C0F3800445F8B3
S214404410041F95421CD107E005F10403696005F1CD
S214404420080559609542F7D14FF46D45CEF2000528
S21440443040F20002C0F24002AA604AF25D21C0F299
S2144044404001884744F2B170C0F240008047FEE722
S214404450002CE1D045F8041F9542DDD1E4E7002C5E
S21440446090D05C589C5003F1040383428AD1B7E74E
S2144044700029ABD0985845F8040D043AA6D1AFE7CA
S214404480000000203C094100B81A0020BB1A00205A
S21440449038094100BC2C0020B81A0020B72C002058
S2144044A04FF48063C4F20E03186B00F00303032B33
S2144044B000F2A980DFE803F002144F4F41F21040AB
S2144044C0C4F20E00416911F0800F40F2A413C2F20C
S2144044D0000314BF4FF400424FF4FA421A6092E0D1
S2144044E04FF48063C4F20E03186A10F0807F09D040
S2144044F04FF4D853C0F2B70340F2A412C2F20002FF
S214404500136080E04FF41061C0F23D0140F2A41207
S214404510C2F2000211604FF48063C4F20E03186AC0
S21440452000F07001102902D020296CD109E04FF428
S2144045309050C0F27A0040F2A411C2F20001086026
S21440454061E04FF4D853C0F2B70340F2A412C2F26F
S2144045500002136057E04FF48062C4F20E02136A02
S21440456013F0807F09D04FF4D853C0F2B70340F21F
S214404570A412C2F20002136027E04FF41063C0F2A8
S2144045803D0340F2A412C2F2000213604FF480636F
S214404590C4F20E031A6A02F07003102B02D0202BCE
S2144045A013D109E04FF49053C0F27A0340F2A412BC
S2144045B0C2F20002136008E04FF4D853C0F2B703CB
S2144045C040F2A412C2F2000213604FF48063C4F2B9
S2144045D00E031A6B02F00303022B4FF48062C4F200
S2144045E00E0207BF906A916AD06AD16A40F2A4135D
S2144045F0C2F20003C0F30A401A6800FB0220C9B2A8
S214404600B0FBF1F21A604FF48062C4F20E02106BF7
S21440461000F0700170290ED140F2A413C2F20003DC
S21440462018684AF6AB22CAF6AA22A2FB00014FEA55
S2144046305100186070474FF48063C4F20E031A6B43
S21440464040F2A410C2F20000C2F30211036823FA3B
S21440465001F30360704700BF42F6FF43C0F23113D8
S21440466098420CD84FF42061C4F20E014FF080609F
S21440467008604FF44063C4F20E031860704745F676
S214404680FF11C0F2622188420ED84FF42060C4F277
S2144046900E004FF48073C0F2004303604FF4406254
S2144046A0C4F20E021360704748F2FF62C0F29332C3
S2144046B090420ED84FF42062C4F20E024FF40073BC
S2144046C0C0F2004313604FF44061C4F20E010B6029
S2144046D070474BF2FF33C0F2C44398420ED84FF4B3
S2144046E02062C4F20E024FF44071C0F200411160E5
S2144046F04FF44060C4F20E00016070474EF2FF0176
S214404700C0F2F55188420CD84FF42061C4F20E0135
S2144047104FF0042008604FF44063C4F20E03186064
S21440472070474FF42060C4F20E004FF4A063C0F20E
S214404730004303604FF44062C4F20E0213607047B9
S21440474042F20033C2F20003196841B942F2003324
S214404750C2F2000345F6C042C2F200021A6042F2BC
S2144047600031C2F200010B68181847F6FC72C2F21C
S2144047700202824206DB014642F20030C2F20000EC
S214404780016001E04FF0FF33184670474FF0FF30AE
S214404790704700BF4FF400534B604FF00000704727
S2144047A04FF00100704700BF4FF00000704700BF59
S2144047B02DE9F04140F2E513C0F2400398474AF233
S2144047C01910C0F2400080474FF0010440F2A0119B
S2144047D0C2F200010C70BFF35F8F62B641F2C15265
S2144047E0C0F2400290474FF0000048F6DD35C0F278
S2144047F04005A84741F2F016C2F2000649F6C51534
S214404800C0F240054EF6E047C0F240074CB333686E
S2144048105868426802F1FF314160002908DA1846BC
S21440482059684AF29D32C0F240029047C0B204E056
S2144048305A68136813F8010B13600028E6D0A8479F
S2144048400446384621464AF2A923C0F24003984718
S214404850204649F60D31C0F2400188474FF000042B
S214404860D4E7A84780460028D0D0384641464AF28A
S214404870A923C0F240039847404649F60D31C0F29E
S21440488040018847C2E700BF2DE9F04387B006469F
S2144048900F4614464EF6E440C0F240004AF2A925C0
S2144048A0C0F24005A8474EF6FC40C0F24000A8477C
S2144048B04FF000054EF61059C0F240094AF2A928BA
S2144048C0C0F240084846715DC04705F101054846BC
S2144048D0715DC04705F10105142DF3D14EF6185011
S2144048E0C0F240004AF2A923C0F2400398474FF076
S2144048F000054EF61059C0F240094AF2A928C0F207
S21440490040084846795DC04705F101054846795D4F
S214404910C04705F10105142DF3D142F6B435C2F275
S2144049200005284647F23951C0F2400188472846DC
S21440493039464FF0140247F6E527C0F24007B8471D
S214404940284631464FF01402B847284601A947F694
S2144049508512C0F2400290474EF62C50C0F24000FE
S2144049604AF2A926C0F24006B0470DF103050DF104
S21440497017094EF61058C0F240084AF2A927C0F26E
S214404980400705F1010640466978B84705F102053B
S21440499040467178B8474D45F3D14EF64050C0F288
S2144049A040004AF2A923C0F2400398474FF0000562
S2144049B04EF61057C0F240074AF2A926C0F240060B
S2144049C03846615DB04705F101053846615DB04740
S2144049D005F10105142DF3D14FF0000001A9435C09
S2144049E0225C83EA0205255400F1010001AF3E5CDB
S2144049F0215C86EA0103235400F101001428EDD11E
S214404A004EF65450C0F240004AF2A922C0F240028C
S214404A1090474FF000054EF61057C0F240074AF256
S214404A20A926C0F240063846615DB04705F101054B
S214404A303846615DB04705F10105142DF3D107B046
S214404A40BDE8F0832DE9F04F83B001900D464EF659
S214404A506850C0F2400001994AF2A924C0F24004CE
S214404A60A0474EF69050C0F24000A047784C42F621
S214404A707039C2F2000909F1130B4EF6105AC0F213
S214404A80400A4AF2A9284746C0F2400704F1010608
S214404A9050466178B84704F1020450467178B847EA
S214404AA05C45F3D14EF6A850C0F240004AF2A92326
S214404AB0C0F240039847674C09F1270B4EF6105A50
S214404AC0C0F2400A4AF2A9200746C0F240076FEA01
S214404AD0040101EB0B0202F00106504614F8011FD8
S214404AE0B8475C4540F0A9800BE004F1010650460B
S214404AF06178B84704F1020450467178B8475C457F
S214404B00F3D14EF6C050C0F240004AF2A923C0F29C
S214404B1040039847504C09F13B094EF6105AC0F2F4
S214404B20400A4AF2A92C6746C0F240076FEA0400E2
S214404B3000EB090101F00106504614F8011FB84782
S214404B404C4571D10BE004F1010650466178B847F8
S214404B5004F1020450467178B8474C45F3D14EF6FE
S214404B60D850C0F240004AF2A924C0F24004A04700
S214404B704EF61050C0F2400042F67032C2F20002CA
S214404B8092F83C10A0474EF6F050C0F24000A047C6
S214404B9042F2D433C2F20003019F03EB87174FF073
S214404BA000044EF61058C0F240084AF2A926C0F259
S214404BB040063919404691F82C10B04704F10104DC
S214404BC03A19404692F82C10B04704F10104142CD0
S214404BD0EFD14EF60860C0F240004AF2A923C0F278
S214404BE0400398474FF000044EF61057C0F2400777
S214404BF04AF2A926C0F240063846295DB04704F17D
S214404C0001043846295DB04704F10104142CF3D161
S214404C104FF2C060C0F240004AF2A921C0F2400103
S214404C20884703B0BDE8F08F002E8CD0504614F86D
S214404C30011FB8474C4586D191E7002E3FF455AF4B
S214404C40504614F8011FB8475C457FF44EAF58E70E
S214404C506F2B0020832B0020972B00202DE9F04F50
S214404C6083B006460C464EF62060C0F240004AF23C
S214404C70A925C0F24005A8474EF63460C0F2400071
S214404C803146A8474EF64860C0F240002146A84745
S214404C90BD4849F61563C0F2400398471FFA80F9AD
S214404CA0012C15D08CB1022C02D14FF0120411E029
S214404CB04EF66060C0F2400021464AF2A922C0F299
S214404CC0400290474FF0FF005BE14FF00A0401E0DE
S214404CD04FF00E044EF68060C0F2400021464AF285
S214404CE0A927C0F24007B847C6EBC628C6EB8800DF
S214404CF0C6EBC0011FFA81F842F6AE35C2F2000597
S214404D00B5F800A008EB0A031A1B1FFA82FA4EF603
S214404D10A060C0F240005146B84742F6B434C2F2F2
S214404D200004204647F23951C0F240018847DFF878
S214404D305CB2204659464FF0040247F6E525C0F2DD
S214404D404005A847204642F6B441C2F200014FF063
S214404D500402A84720460BF104015246A84742F6F3
S214404D607035C2F200052046294647F68513C0F244
S214404D704003984709EB08001FFA80F842F2544275
S214404D80C2F2000208EB020442F2D432C2F200023F
S214404D90D4F800C0D4F804E0A368E168C2F804C0C0
S214404DA0C2F808E0D360116120695061D2F80490DF
S214404DB0D2F808C0D2F80CE01369C5F81490C5F8CC
S214404DC018C0C5F81CE02B6251696962134653F857
S214404DD0189FD3F804C0D3F808E0D868C5F82890E0
S214404DE0C5F82CC0C5F830E068631969A963237D0F
S214404DF085F83C3042F67029C2F20009CDF80090A2
S214404E0002F12C004FF014012A464FF03D0347F6BE
S214404E103165C0F24005A8474FF00000494644F6C9
S214404E204522C0F2400290474EF6BC60C0F24000B9
S214404E30B847484604F115014FF014024AF22933A8
S214404E40C0F24003984728B14EF6E060C0F24000FA
S214404E50B84708E04EF6E860C0F240004AF2A921A2
S214404E60C0F2400188474FF2C060C0F240004AF2AC
S214404E70A923C0F240039847022E77D108F12906AD
S214404E8042F25447C2F2000717FA86F842F2D43488
S214404E90C2F20004D8F80050D8F80400D8F8081039
S214404EA0D8F80C206564A064E1642265D8F8103018
S214404EB0636542F67032C2F20002676CA66CE56C1F
S214404EC0206D57619661D5611062616D51622346CF
S214404ED053F8587F5E689D68D8689762D6621563B7
S214404EE05063196991634FF0000382F83C3042F6F4
S214404EF07025C2F20005009504F16C004FF01401D5
S214404F004FF03D0347F63164C0F24004A0474FF0EF
S214404F100100294644F64522C0F2400290474EF62C
S214404F20F060C0F240004AF2A921C0F24001884732
S214404F30284608F115014FF014024AF22933C0F210
S214404F404003984748B14EF6E060C0F240004AF24F
S214404F50A921C0F24001884708E04EF6E860C0F25A
S214404F6040004AF2A922C0F2400290474FF2C06089
S214404F70C0F240004AF2A923C0F2400398474FF0DF
S214404F80000003B0BDE8F08F562400205A240020CD
S214404F902DE9F04F85B004460E464EF61470C0F22A
S214404FA040004AF2A925C0F24005A8474EF63460B4
S214404FB0C0F240002146A8474EF62C70C0F2400092
S214404FC03146A847012C05D0002C00F07F81022CEA
S214404FD035D116E042F6AE33C2F200031888A0F18F
S214404FE02D011FFA81F94EF64470C0F24000494642
S214404FF04AF2A922C0F2400290474FF000030393C2
S2144050002AE042F6AE30C2F200000188A1F15A0909
S2144050101FFA89F9A1F12D018AB203924EF6447027
S214405020C0F2400049464AF2A925C0F24005A847CA
S2144050304EF66470C0F240000399A8470CE04EF666
S2144050408470C0F2400021464AF2A923C0F24003D1
S21440505098474FF0FF003EE1012E15D08EB1022E4C
S21440506002D14FF0120711E04EF6A070C0F2400099
S21440507031464AF2A922C0F2400290474FF0FF0064
S21440508029E14FF00A0701E04FF00E074EF6806028
S214405090C0F2400039464AF2A925C0F24005A8476A
S2144050A004EB440AAAEB0A1642F6AE30C2F20000FF
S2144050B001887318DA1B1FFA82FB4EF6C070C0F2E6
S2144050C040005946A84742F6B448C2F2000842F2A9
S2144050D05446C2F20006D6F80650C8F8005042F6CB
S2144050E0B435C2F20005284647F23951C0F24001B5
S2144050F08847284641464FF0040247F6E52AC0F264
S214405100400AD0472846F1195A46D04742F67037EB
S214405110C2F200072846394647F68513C0F24003D8
S214405120984742F2D43AC2F2000A524652F804EF86
S21440513055689068D168C7F814E0BD61F861396277
S21440514013697B62554655F818CF6868A968EA68BF
S214405150C7F828C0F86239637A632B69BB634FF09F
S214405160000B87F83CB042F67028C2F20008CDF833
S21440517000800AF12C004FF014013A464FF03D03F0
S21440518047F63165C0F24005A8475846414644F6C2
S2144051904522C0F24002904709EB060BDAF80000C1
S2144051A049F8060009F10405AB19D7F828A0D7F846
S2144051B02CC03A6B796B45F806A0C3F804C09A60D9
S2144051C0D960B86B186197F83C508BF8185009F1C5
S2144051D0190909EB0603D8F80050D8F80400D8F8A7
S2144051E00810D8F80C2049F8065058609960DA60E4
S2144051F0D8F810001861022C6BD13E4642F2D437E4
S214405200C2F200073B4653F8445F5C689A68D96828
S2144052107561B461F2613162186970623B4653F859
S214405220585F5C689968DA68B562F46231637263A5
S2144052301869B0634FF0000886F83C8042F6702547
S214405240C2F20005009507F16C004FF0140132469B
S2144052504FF03D0347F63169C0F24009C8474FF06A
S2144052600100294644F64523C0F24003984742F2DF
S2144052705443C2F20003039CE0183F6C0399CF509E
S21440528001F10401CA18D6F828A0D6F82C90D6F812
S21440529030C0746B41F803A0C2F80490C2F808C04E
S2144052A0D460B76B176196F83C600676039901F1B7
S2144052B01901CA182F686E68AC68E868CF50566007
S2144052C09460D0602B691361404604E04FF00000C4
S2144052D001E04FF0000005B0BDE8F08F2DE9F04743
S2144052E0074640F27463C2F20003B3F80090B9F187
S2144052F0000F25D040F25835C2F200054AF26158F8
S214405300C0F2400809F1FF3000F0010A2E46384648
S2144053102968C047C8B915E04FEA04135E193846F5
S2144053205959C04770B104F101044FEA04114E19AF
S21440533038464959C04700BB04E04FF0000601E03C
S2144053404FF000063046BDE8F0874FF0000404F109
S2144053500104B9F1010FF0D90FFA8AF10029DBD028
S21440536005EB041638463168C0470028EAD004F1F9
S2144053700104A2B29145CFD8DFE704F10104A6B2FA
S214405380B145C9D8D9E700BF2DE9F047074640F2F6
S2144053907463C2F20003B3F80090B9F1000F25D051
S2144053A040F69405C2F200054AF26158C0F2400841
S2144053B009F1FF3000F0010A2E4638462968C047FA
S2144053C0C8B915E005EBC406384655F83410C04752
S2144053D070B104F1010405EBC406384655F83410A4
S2144053E0C04700BB04E04FF0000601E04FF0000667
S2144053F03046BDE8F0874FF0000404F10104B9F1EF
S214405400010FF0D90FFA8AF10029DBD005EBC4066C
S21440541038463168C0470028EAD004F10104A2B2F9
S2144054209145CFD8DFE704F10104A6B2B145C9D80B
S214405430D9E700BF064B03F580604FF0000103F14B
S2144054400102597003F1020351708342F7D170474D
S2144054505324002008B54FF00100014649F2D90315
S214405460C0F24003984708BD70B54FF24800C0F2FE
S21440547040004AF2A923C0F24003984742F25444FF
S214405480C2F2000404F10E0042F67011C2F20001AE
S2144054904FF480724AF24735C0F24005A84742F6BC
S2144054A07002C2F20002166855689068D168C4F867
S2144054B01261C4F81651C4F81A01C4F81E111369D3
S2144054C0C4F822314FF00100014649F2D902C0F239
S2144054D04002904770BD00BF70B54FF26400C0F206
S2144054E040004AF2A923C0F2400398474FF001001B
S2144054F0014649F2D902C0F240029047184849F6A0
S2144055001561C0F24001884770B14FF27C00C0F28E
S21440551040004AF2A924C0F24004A0474FF29C0043
S214405520C0F24000A04770BD42F6B030C2F2000064
S21440553004784FEA841542F2D436C2F20006AA191D
S214405540084B1968A95153F8046F5D689C68D86881
S21440555056609560D46010611B69536170BD00BF92
S2144055605A2400205E2400202DE9F04F83B0814667
S2144055708A4615461C464FF000084EF6E046C0F2F6
S21440558040064AF2E927C0F240074AF2A92BC0F289
S214405590400B14B1012CFCD12DE030460DF1070133
S2144055A0B8479DF807100029F3D00D2905D100BF54
S2144055B04FF0000089F800004AE00AF1FF308045CD
S2144055C00ADA3046D8479DF8073009F8013B08F11B
S2144055D001085FFA88F8DCE74FF0000189F8001010
S2144055E04FF2AC00C0F2400049464AF2A922C0F24F
S2144055F0400290472CE041F2F013C2F200031A68D2
S2144056005068416801F1FF334360002B08DA1046CA
S21440561051684AF29D33C0F240039847C1B204E055
S2144056205268106810F8011B106002A800F8021DAE
S2144056304AF22122C0F240029047014628604FF2CB
S2144056401800C0F240004AF2A923C0F2400398472F
S21440565003B0BDE8F08F00BF2DE9F04F83B04FF2A6
S214405660B800C0F240004AF2A923C0F2400398476F
S21440567042F67010C2F2000048F69D01C0F24001AA
S2144056808847834600286CD04FF2D400C0F24000D2
S2144056904AF2A922C0F2400290474FF0010A4FF06A
S2144056A000094AF2A926C0F240064EF61058C0F24B
S2144056B0400842F67017C2F2000750485146B047BD
S2144056C04FEA8904A4B223464FEA8A05A54208DD7C
S2144056D04046F95CB04704F10104A4B22346AC420C
S2144056E0F6DB09F101091FFA89F90AF1010ACB45EF
S2144056F0E3D84FF2FC06C0F240064AF2A924C0F2B4
S214405700400445F26955C0F240054FF21C17C0F2FE
S21440571040073046A0474FF00000014601AA4FF030
S2144057200103A847019800F1FF31042902D9384601
S214405730A047EEE700F1FF32019242F67013C2F244
S214405740000303EB820049F61564C0F24004A0470C
S21440575048F64111C0F2400188470446FF281ED152
S2144057600EE04FF23410C0F240004AF2A924C0F2D4
S2144057704004A0474FF24C10C0F24000A0473AE029
S2144057804FF26010C0F240004AF2A924C0F2400432
S214405790A0474FF24C10C0F24000A0472BE0184DF7
S2144057A0294648F60502C0F2400290474FF00100F5
S2144057B0014649F2D903C0F240039847A5F10400D8
S2144057C049F61561C0F24001884770B14FF27C102F
S2144057D0C0F240004AF2A924C0F24004A0474FF26B
S2144057E04C10C0F24000A04705E0204648F27D320B
S2144057F0C0F24002904703B0BDE8F08FECF04000A6
S2144058005E24002010B50446174849F61563C0F2DA
S21440581040039847A17A02291AD019290CD011BB07
S214405820262820D14FF29C10C0F240004AF2A9220E
S214405830C0F24002904710BD032814D14FF2F0103A
S214405840C0F240004AF2A923C0F24003984710BD78
S214405850082808D14FF23C20C0F240004AF2A92165
S214405860C0F24001884710BD5A24002010B582B0CF
S214405870837A112B11D142F25440C2F20000017CCF
S214405880427C837CC47C00944FF27820C0F2400077
S2144058904AF2A924C0F24004A04702B010BD00BF9F
S2144058A0F0B583B004464FF29C21C0F240014AF264
S2144058B06153C0F24003984748B94FF2B420C0F253
