S00F00004F70656E54504D2E7372656392
S21440000060540020F95A4000F55A4000F55A400026
S214400010F55A4000F55A4000F55A400000000000EE
S214400020000000000000000000000000F55A4000FC
S214400030F55A400000000000F55A4000F55A4000CE
S214400040F55A4000F55A4000F55A4000F55A40002F
S214400050F55A4000F55A4000F55A400000000000AE
S214400060F55A4000F55A400000000000310F4000AD
S214400070450F400000000000F55A40000000000018
S214400080000000000000000000000000F55A40009C
S214400090F55A4000F55A4000F55A4000F55A4000DF
S2144000A0F55A4000F55A40000000000000000000ED
S2144000B000000000F55A400000000000F55A4000DD
S2144000C0F55A4000F55A40007915400010B5054CE9
S2144000D0237833B9044B13B10448AFF300800123AF
S2144000E0237010BD6C1800200000000058FD400032
S2144000F0084B10B51BB108490848AFF300800848C4
S214400100036803B910BD074B002BFBD0BDE8104079
S214400110184700BF000000007018002058FD40003F
S21440012058FD4000000000000E4900230B700E4AA8
S21440013013800E4AA1201070202050705380938068
S2144001400220D08013810A4A4FF4E13010601371C8
S2144001505371082393710B780133DBB20B70012087
S214400160704700BF1C190020C41900203019002019
S21440017088180020024A1378013BDBB213707047A0
S2144001801C190020044A1378013BDBB21370137825
S2144001900022024B1A7070478F1800202619002044
S2144001A000207047002070471D4B1B7813F0800FCF
S2144001B012D003F06003202B28D1194B5B78212BFB
S2144001C026D1174BDB88072B24D1154B154A9A604E
S2144001D007229A810120704703F06003202B1BD131
S2144001E00F4B5878202804D0222814BF0020012026
S2144001F070470B4BDB88072B10D1094B0A4A1A6114
S214400200084A9A6007229A8101207047002070476A
S214400210002070470020704700207047002070473D
S214400220501B0020881800202D024000704700BF59
S214400230444B1B7813F0FF0F40F0838030B585B0F9
S214400240414B984730B1414B1C88414B98478442BC
S21440025006D174E03D4B1C883E4B984784426ED096
S214400260EFF31083B3FA83F35B09039372B6BFF3DD
S2144002705F8F0022384B1A70039D384B1C78E4B2CF
S214400280374B33F81430DBB9364A138801331380C2
S2144002902D4B984718B9334B1B88632B07D92A4BED
S2144002A0984768B12F4B1B88B3F5487F08D2002D7E
S2144002B045D00122284B1A70BFF35F8F62B63EE0EE
S2144002C00022284B1A80284B1B7813F0FF0F05D1CD
S2144002D0B4FA84F35B09214A137002E0B4FA84F45A
S2144002E064090122174B1A7025B11B4B1A70BFF3D5
S2144002F05F8F62B625461A4B33F81430402B14BF36
S214400300012400240CD0104B984720B1104B98473E
S2144003100E4B188007E00F4B98470C4B188002E0B6
S21440032000220A4B1A800E4B33F815300F4A0092C3
S2144003300F4A02EB8512214681200E4CA04705B09D
S21440034030BD70472C190020E51F400024190020BE
S2144003504D2040003D204000BF0F00209018002058
S214400360941800202A190020C01900207903400064
S21440037098180020C523400088B908B5084B1B785C
S21440038013F0FF0F0CBF01220022064B23F8120089
S214400390054B1870054B1870054B984708BD7047BD
S2144003A09018002094180020C01900202C19002016
S2144003B03102400008B50020014B984708BD00BFF9
S2144003C03102400082B0EFF31083B3FA83F35B0947
S2144003D0019372B6BFF35F8F00220B4B1A70019ADF
S2144003E00A4B188880B20A4B1B78DBB2094931F8B1
S2144003F013309BB2181A2AB10122034B1A70BFF36E
S2144004005F8F62B602B07047BF0F002020190020F1
S214400410281900201819002008B5034B98470030CB
S21440042018BF012008BD00BFC503400010B584B00A
S214400430EFF31083B3FA83F35B09039372B6BFF30B
S2144004405F8F00221F4B1A70039B1F4A14781F4A67
S214400450127812F0FF0F09D1E4B21D4A118889B212
S2144004601C4A32F8142092B2914208D233B3012289
S214400470144B1A70BFF35F8F62B600201FE0002156
S214400480134A1180B4FA84F252090F490A700121C6
S2144004900E4A117023B10B4B1970BFF35F8F62B6D3
S2144004A000200D4B98470D4B009340230C4A02EB1F
S2144004B08412012102200B4CA04700E0002004B02B
S2144004C010BD00BFBF0F002028190020BC19002017
S2144004D02019002018190020190440007905400012
S2144004E03C190020C523400010B50024154B1C7055
S2144004F0154B1C70154B1C70154B1C70154B1C80F7
S2144005005C80154B1C802046144B9847144B1C703F
S214400510144B1C70144B1C805C80144B1C80204673
S214400520134B9847014658B1064A13780133DBB25D
S21440053013701378DBB2012B02D101220D4B1A70D7
S214400540084610BD8F1800202C190020C019002026
S21440055090180020941800202419002031024000F2
S214400560BC19002028190020181900202019002046
S2144005702D04400026190020F8B910B582B0104668
S2144005800E4B1B7813F0FF0F0CBF0122002249B917
S2144005900B4B009340230B4901EB821201210A4C7E
S2144005A0A04708E089B2094B23F812100020084BF8
S2144005B01870084B984702B010BD704728190020A5
S2144005C0790540003C190020C5234000181900203A
S2144005D0BC1900202D0440002DE9F04782B0254B81
S2144005E093F80680B8F1090F14BF4FF000084FF09B
S2144005F001084FF0000A204CD14657461F4D204E6A
S214400600EFF31083B3FA83F35B09019372B6BFF33B
S2144006105F8F277001982B889BB23278D2B21949E7
S21440062031F8121089B220B101202070BFF35F8FDD
S21440063062B68B4206D3144B1B7813F0FF0FDFD104
S214400640002013E0114901EB8212D05C40EA0A0A0E
S21440065001339BB22B8048460D4B9847B8F1000FAC
S21440066003D04FEA0A2AC846CAE7504602B0BDE859
S214400670F08700BF88180020BF0F002020190020F8
S2144006802819002018190020261900203C1900209F
S2144006902D04400008B50020014B984708BD00BF18
S2144006A0D905400082B0EFF31083B3FA83F35B09B9
S2144006B0019372B6BFF35F8F0022144B1A70019AF3
S2144006C0134B1B78DBB2134931F81300402812D184
S2144006D01149097811F0FF0F0DD11049097811F032
S2144006E0FF0F08D101200D490870B3FA83F35B0968
S2144006F007490B700020C0F140002AB10122034B8D
S2144007001A70BFF35F8F62B602B07047BF0F00200B
S21440071090180020941800202C190020C0190020A2
S21440072008B5034B9847003018BF012008BD00BFEE
S214400730A50640002DE9F04182B00C461D4B9D7940
S214400740092D14BF002501251B4E1C4FDFF87C8069
S2144007500020B04728B91A4B1B7813F0FF0FF7D18B
S21440076024E0EFF31083B3FA83F35B09019372B688
S214400770BFF35F8F00233B70019898F80030DBB2E0
S214400780104A32F8131001F1010E22F813E00E4A17
S21440079002EB83135C5420B101233B70BFF35F8FA1
S2144007A062B615B124120025D2E7012002B0BDE89A
S2144007B0F08100BF8818002021074000BF0F0020AE
S2144007C02619002094180020981800209018002021
S2144007D008B501460020014B984708BD3507400044
S2144007E00F4B1B681A6853881A4403781844904283
S2144007F010D24378042B0FD08B4205D170474378F4
S214400800042B0BD08B420AD0037818449042F6D380
S2144008100020704700207047002070470020704737
S214400820C819002008B5034B987800F07F00024BAB
S214400830984708BD501B0020E91F4000174B1B7807
S2144008402BB3174B1B681B681A79824221D970B4A8
S214400850144A13605C881C44A3421CD2002501261F
S2144008605A78042A0AD19A78824207D1DA788A429C
S21440087004D10DB10B4A136001200DE01A781344E1
S2144008803546A342ECD3074A1360002004E000201C
S214400890704700207047002070BC7047D419002075
S2144008A0C8190020D81900202DE9F8430446002135
S2144008B0124B98478046E8B1114B1B685B6853F86B
S2144008C02490D9F80C309847014620460B4B984761
S2144008D0804678B10B4B1C6805260B4D0B4F3146B6
S2144008E02046A847044610B18078B847F7E7D9F8BD
S2144008F0043098474046BDE8F88300BF3D084000B6
S214400900C8190020D8190020E10740007521400092
S2144009102DE9F0418046104B98470346C8B10F4B2F
S2144009201C6805260E4D0F4F31462046A847044604
S21440093038B18288C1788078B84703460028F3D11A
S21440094007E0094B1B685B6853F828301B689847DC
S21440095003461846BDE8F0813D084000D8190020FF
S214400960E10740005D204000C819002008B5014B53
S214400970984708BD091F400070B50D4B1B7883B1E2
S2144009800C4B1B681B681B795BB100240A4E094D53
S2144009902046B0470134E4B22B681B681B79A3425B
S2144009A0F6D80023024A1370044A138070BD00BF75
S2144009B0D4190020C8190020A9084000D2190020E8
S2144009C038B50C4B1B789BB10B4B1B681A681279D9
S2144009D072B10024084D5B6853F824301B6903B19C
S2144009E098470134E4B22B681A681279A242F2D8CA
S2144009F038BD00BFD4190020C8190020F8B58F4B69
S214400A0000229A811A615A611B7813F0800F00F019
S214400A10D5818A4AD288002A40F0D481C6E113F0B4
S214400A201F0362D18549497806290BD0082954D03E
S214400A3000295AD1022A40F0688102218048814B21
S214400A409847C3E17D4B5A88130A013B0E2B00F2B0
S214400A505381DFE813F00F001500310051015101BA
S214400A6051015101510151015101510151015101B1
S214400A7051012800744B18680178724B984723E060
S214400A80D2B2714B1B685B7C934240F23E816E4B08
S214400A905B6853F8320041886A4B9847674B9B68BF
S214400AA002225A7010E0684B9868002800F02D81AA
S214400AB04188644B984707E012F0FF0F40F02581CD
S214400AC0042162485F4B98475C4BDA889B89934287
S214400AD040F27C81594B9A8178E1012A40F0158199
S214400AE001215B48574B984770E1012B27D153496A
S214400AF049780A2923D1012A40F00781544B1B78B4
S214400B00002B00F002814D4B1C79524B1D682B6820
S214400B101B79A34240F2F980002120464E4B98476D
S214400B20002800F0F2806B6853F82430DB68984762
S214400B304A4B187001211846424B984746E1022B13
S214400B4040F0E3803D4B5B78002B40F0D780022A94
S214400B5040F0DB80394B1879414B9847414B188021
S214400B6002211846374B984730E113F01F0340F0F8
S214400B708380324A5278013A082A7DD8DFE812F05C
S214400B8012007C00C0007C0009007C007C007C00D9
S214400B9022002A4BDB88002B40F0B780324A274B96
S214400BA01A6113E1254BDB88002B40F0AE80234BC7
S214400BB05B88012B40F0A980214A138823F002036A
S214400BC0138003E11D4BDB88002B40F09E80274BB3
S214400BD09847002800F09980184B9A781A4B1B6863
S214400BE05B7C9A4200F39180214B9847134B9B784D
S214400BF0174A1370002B00F0E98003F10053013BC5
S214400C00114A526802EBC3001249086052F833306A
S214400C101B79002B00F0DA8000242646154D0F463F
S214400C2031462046A84700286FD00134E4B23B68DE
S214400C301B681B79A342F3D8C8E000BF501B0020B6
S214400C40D2190020512040004C0F002034000020D4
S214400C50D4190020C81900203D084000D0190020B3
S214400C60CD214000CC19002025084000212040001E
S214400C707909400011094000012B19D1554A527894
S214400C800B2A15D1534BDB88002B3ED1524B1B7899
S214400C90002B3AD04F4B1C795D8820464F4B9847E7
S214400CA0002832D0E9B220464D4B984703462AE00A
S214400CB0022B2AD1474B5B78012B02D0032B0CD05A
S214400CC020E0444BDB8803BB424B5B88EBB9414B8F
S214400CD01879444B9847034615E03E4BDB88A3B94A
S214400CE03C4B5B888BB93B4C20793F4B98472079EF
S214400CF03E4B9847034606E0002304E0002302E00C
S214400D00002300E00023002B61D1324B1B7803F018
S214400D101F03012B1FD1304B1B78002B48D02D4B87
S214400D201C79334B1D682B681B79A34242D900219E
S214400D302046304B984770B16B6853F82450EB68A8
S214400D409847014620462B4B984720B1AB689847BA
S214400D50034600283BD11F4B1B7803F01F03022B92
S214400D602AD11D4B1B78EBB1214B1A6813681B79AF
S214400D70D3B100241F4E1E4F536853F82450EB68DF
S214400D80984701462046B047034600B3AB689847AD
S214400D900346E0B90134E4B23A6811680979A142E1
S214400DA0EAD814E0002312E0002310E000230EE00F
S214400DB000230CE000230AE0002308E013F0600F55
S214400DC0A3D1D2E613F0600F9FD128E60123184640
S214400DD0F8BD00BF501B0020D4190020A9084000D1
S214400DE011094000ED224000452540000D224000FC
S214400DF0C81900203D08400090B92DE9F0410C4646
S214400E009046002A0FDD8F18084E094D306821465F
S214400E102B6898470134A742F8D14046BDE8F08198
S214400E204FF0FF3070470020BDE8F081502400208E
S214400E304C1B002008B5064B1B783BB10846054BBB
S214400E409847B0FA80F04009404208BD002008BDEF
S214400E50DC190020D1074000054B1B780BB90B70FE
S214400E60704710B50C46034B9847207010BD00BF26
S214400E70DC1900209506400070B500240A4B1C6023
S214400E800A4A0B4B1A600B4A0B4B1A600B4B98479F
S214400E900B4E3368214698680A4DA847336821466A
S214400EA05868A84770BD00BF50240020350E40004B
S214400EB04C240020590E40004C1B00206D09400079
S214400EC0F0130020F96140002DE9F843814688463A
S214400ED0124B984705464846114B9847054013D055
S214400EE0104C04F160062368434508D161682942E6
S214400EF005D0E36840469847636825EA0305B44250
S214400F0002D01034002DEED1074B1B6823B1074B9F
S214400F101B680BB148469847BDE8F883895840009F
S214400F208D584000E419002054240020E019002089
S214400F3008B50B210148024B984708BD000E0E40ED
S214400F40C90E400008B50C210148024B984708BD21
S214400F5000100E40C90E400010B443F6992301E03D
S214400F60013B0ED0046914F0010FF9D08368406845
S214400F7010F0020F1CBFC3F3034010700B8000201C
S214400F8000E0012010BC704730B443F6992401E0DD
S214400F90013C11D0056915F0020FF9D0446814F0F1
S214400FA0020F06D0120402F4702211430BB141F036
S214400FB08071C160002000E0012030BC704700BF57
S214400FC082B00146002840D1234B1B78002B39D0F5
S214400FD0224B9B7803B9FEE7EFF31083B3FA83F313
S214400FE05B09009372B6BFF35F8F00221C4B1A70EA
S214400FF000981A4A9378013B937018B30122184B15
S2144010001A70BFF35F8F62B61CE0144B9B78FF2BC1
S21440101000D1FEE7EFF31083B3FA83F35B09019345
S21440102072B6BFF35F8F00220D4B1A7001980B4AC1
S21440103093780133937028B10122094B1A70BFF39D
S2144010405F8F62B6044B197004E0034B1B78002B8D
S214401050F8D1DAE702B07047941A0020441B00200B
S214401060BF0F0020034A0023136153619381024A55
S21440107013707047501B0020981A002082B005223B
S2144010800A4B1A700A4A136B0193019B43F04F03B5
S2144010900193019B43F020030193019B1363136B61
S2144010A013F0200FFBD002B0704700BF981A002004
S2144010B00040034082B003220A4B1A700A4A136B60
S2144010C00193019B43F04F030193019B43F01003B0
S2144010D00193019B1363136B13F0100FFBD002B008
S2144010E0704700BF981A00200040034008B5024BE6
S2144010F01B6903B1984708BD501B002030B587B028
S214401100614B1B78032B15D1604A136B0093009BF1
S21440111043F04F030093009B23F001030093009B92
S2144011201363136B13F0010FFBD1594B9847594B80
S2144011309847A7E0584B1A88584B9C89A41AA4B2E3
S214401140002C2AD156490B8813449BB20B80534A35
S214401150D2889A4202D0534B1B78A3B104224A4B02
S2144011601A704A4A136B0193019B43F04F03019355
S214401170019B23F001030193019B1363136B13F050
S214401180010FFBD17EE0454B5B696BB1984758B188
S2144011900022414B1A80414B9C893F2C04D90022A7
S2144011A0404B1A70402402E001223E4B1A703B4BE3
S2144011B09968394B1B88EFF31082B2FA82F25209D3
S2144011C0059272B6BFF35F8F0020374A1070059DB8
S2144011D02E4A126B12F0020F01D1E4B925E02DB170
S2144011E00122314B1A70BFF35F8F62B60422264B42
S2144011F01A70264A136B0293029B43F04F030293E6
S214401200029B23F001030293029B1363136B13F0BC
S214401210010FFBD136E019440A461C4812F8013B40
S2144012200365531ADBB2A342F8D31B4A13881C4407
S2144012301480164A136B0393039B43F04F030393A8
S214401240039B43F010030393039B1363136B13F04A
S214401250100FFBD00D4A136B0493049B43F04F03CF
S2144012600493049B23F001030493049B1363136BC2
S21440127013F0010FFBD12DB101220B4B1A70BFF3B7
S2144012805F8F62B607B030BD981A0020004003401A
S214401290ED10400065104000961A0020501B0020BC
S2144012A0541A0020991A0020BF0F002038B5437CFE
S2144012B013F0100F16D00D46437C6FF3041343749F
S2144012C004687CB102F10C03074951F8233013F44B
S2144012D0806F18BF42F080028168012D14BF002045
S2144012E00120A04738BD00BF0040034030B482B064
S2144012F0411E830003F1402303F540331A6B1C6BF9
S21440130012F0020F0CD014F0400F13D101EB810203
S2144013102A4C04EB8202547C6FF38304547409E035
S21440132001EB8102254C04EB8202547C012565F3D7
S2144013308304547401EB8102204C04EB8202527CFD
S21440134012F00C0F1DD11A6B0092009A42F04F0219
S2144013500092009A22F002020092009A1A631A6BD8
S21440136012F0020FFBD128B3032823D001EB8101F2
S214401370124B03EB81035A7C012161F383025A74BA
S21440138018E01A6B0192019A42F04F020192019ABC
S21440139022F040020192019A1A631A6B12F0400F33
S2144013A0FBD101EB8101054B03EB81014B7C6FF3D5
S2144013B083034B7402B030BC704700BF581A0020FD
S2144013C02DE9F04383B08646461E06EB8602684B00
S2144013D003EB820393F81180C8F3810820B10328F9
S2144013E00CBF0123022300E00123434540F3B680AF
S2144013F006EB86035E4A02EB8303DA689B689A42F2
S21440140009D306EB86045A4D05EB8404647C14F03D
S214401410400F00F0A58006EB8607554C04EB870787
S2144014207C6814449D1A3B8AC3F30907BD423ABF01
S2144014302F464FF0010C4FF0000C06EB86034C4D48
S21440144005EB83033A44DA60072F33D904F10803E7
S2144014503D46820002F1402202F5403213F8089CD5
S214401460C2F8509013F8079CC2F8509013F8069CA8
S214401470C2F8509013F8059CC2F8509013F8049C9C
S214401480C2F8509013F8039CC2F8509013F8029C90
S214401490C2F8509013F8019CC2F85090083D0833AB
S2144014A0072DDBD8A7F1080323F0070308331C44B5
S2144014B007F007074FB1E3192E4F14F8015B0EF102
S2144014C0140247F82250A342F7D106EB8603284A77
S2144014D002EB830308F101085A7C68F383025A74CE
S2144014E0A1B1800000F1402000F54030036B01932D
S2144014F0019B43F04F030193019B43F0100301937C
S214401500019B0363036B13F0100FFBD0BCF1000F7D
S21440151008D006EB8603164A02EB83035A7C6FF329
S21440152086125A7406EB8603114A02EB8303DA6886
S2144015309B689A4216D306EB86030D4A02EB83035A
S2144015405B7C13F0400F0FD106EB860602EB860657
S214401550737C43F080037374002006E0012004E0AF
S214401560002002E0012000E0012003B0BDE8F08347
S214401570581A0020004003402DE9F04F9BB07A4BAC
S214401580984760B9794BDB6913F4807F07D172B610
S214401590BFF35F8F0022764B1A7000F062BC2220A9
S2144015A0744B9847714B9B6913F4006F0CD06F4B8C
S2144015B0DB6913F4006F07D04FF400626B4B1A627E
S2144015C06D4B984700F04DBC684BDB6913F0010F3C
S2144015D000F09281654B1B6B13F0040F00F0948073
S2144015E0664B1B781BB1664B9847664B98475F4BDC
S2144015F01B6BC3F30A43082B14D05C4A136B01934E
S214401600019B43F04F030193019B23F00403019396
S214401610019B1363136B13F0040FFBD15A4B98478F
S21440162000F01FBC594B03F1080050490A6D03F8FF
S214401630012F8342FAD1564B984798B94B4A136BC1
S2144016400293029B43F04F030293029B23F0040352
S2144016500293029B1363136B13F0040FFBD14A4BA8
S2144016609847FEE34B4B93F90030002B2CDA3F4A69
S214401670136B0393039B43F04F030393039B43F087
S21440168080030393039B1363136B13F0800FFBD00D
S214401690364A136B0493049B43F04F030493049B16
S2144016A023F004030493049B1363136B13F0040F9B
S2144016B0FBD10023384A1380384A138002222F4B2E
S2144016C01A70374B9847CCE3284A136B0593059B13
S2144016D043F04F030593059B23F004030593059BB6
S2144016E01363136B13F0040FFBD12A4BDB8813B93B
S2144016F02C4B9847B5E30023274A1380274A13808C
S21440170001221E4B1A70ACE3184B1B6B13F0010FF3
S21440171002D0234B9847A4E3144B1B6B13F0020FE5
S21440172000F0E580154B1B78012B3DD0022B01D0F5
S214401730042B02D1124B984701E0134B98470B4AB3
S214401740136B0693069B43F04F030693069B23F0CA
S21440175002030693069B1363136B13F0020FFBD131
S214401760084B98477DE300BF755A40000040034051
S214401770BF0F002099594000C1094000981A002028
S214401780ED104000651040007D1040004F1B0020CB
S214401790FD094000501B0020541A0020961A0020D5
S2144017A0FD104000B5104000914B196BC1F30A4143
S2144017B0904B9B89904A15886A189342AEBF89B26F
S2144017C05B1B99B28B4B98682844A9B10246884C5B
S2144017D0236D02F8013B131ADBB28B42F8D30D445B
S2144017E0ADB2854B1D80402906D1824BDA88834BAB
S2144017F01B882B449A422DDC7E4B9D815B69ABB1A6
S214401800984798B97E4B9847794A136B0793079B3E
S21440181043F04F030793079B23F002030793079B6E
S2144018201363136B13F0020FFBD11AE3704A136B6A
S2144018300893089B43F04F030893089B23F002034A
S2144018400893089B1363136B13F0020FFBD16D4B89
S214401850984706E3674B9B89AB4236D1654B5B693D
S214401860A3B9674B9847624A136B0993099B43F0A9
S2144018704F030993099B23F002030993099B1363C3
S21440188013461A6B12F0020FFBD1EAE29847A0B952
S2144018905B4B9847564A136B0A930A9B43F04F0399
S2144018A00A930A9B23F002030A930A9B1363134688
S2144018B01A6B12F0020FFBD1D3E250494E4A088809
S2144018C0138803440B8000231380494A136B0B9301
S2144018D00B9B43F04F030B930B9B23F002030B939E
S2144018E00B9B1363136B13F0020FFBD1B9E2404B13
S2144018F01B6B13F0080F06D1434E32460123DFF828
S214401900F0E0184611E03A4A136B0093009B43F010
S2144019104F030093009B23F008030093009B136340
S214401920136B13F0080FFBD19BE2DFB2DEF8181002
S21440193000FA03F5294200F0B18103F1FF389146E1
S2144019409C0004F1402404F54034216B11F0420F12
S21440195060D008EB88032C4A02EB8303B3F810A050
S214401960CAF3090A266BC6F30A46002E00F06A82BE
S21440197008EB880302EB83039A68D968501A5B68C1
S214401980B04200F2548208EB880CDFF87CE00EEBA5
S2144019908C0ECEF80C20002800F05F824FF0010B32
S2144019A019440B46226D03F8012B5A1A9042F9D877
S2144019B03846164B9847BBF1000F02D1B24540F26D
S2144019C05082236B13F0200F40F04B82084B5D6132
S2144019D00D4B4FEA880202EB080103EB8101CB680E
S2144019E08B603A4600214846094B984739E200BF8B
S2144019F000400340501B0020961A0020541A002036
S214401A007D104000B5104000581A0020ED124000EE
S214401A10AD124000216B11F0010F00F0228108EB5F
S214401A208802A14B03EB8202537CC3F3810103314E
S214401A3061F383035374537C13F0200F4DD013F09F
S214401A400C0F20D0236B0C930C9B43F04F030C934E
S214401A500C9B43F010030C930C9B2363236B13F0F7
S214401A60100FFBD0236B0D930D9B43F04F030D934C
S214401A700D9B23F001030D930D9B2363236B13F003
S214401A80010FFBD1EDE1236B0E930E9B43F04F030A
S214401A900E930E9B23F001030E930E9B2363236B42
S214401AA013F0010FFBD1236B0F930F9B43F04F03B3
S214401AB00F930F9B43F020030F930F9B2363236BDF
S214401AC013F0200FFBD008EB8808774B03EB880316
S214401AD05A7C6FF345125A74C3E113F0800F11D04D
S214401AE008EB8802704B03EB8203597C6FF3C711F7
S214401AF05974DA689A606D4B5D613A4600214846F3
S214401B006B4B984708EB8803674A02EB8303DA6817
S214401B109B689A422FD308EB8802634B03EB820301
S214401B205B7C13F04C0F26D1EFF31083B3FA83F3AC
S214401B305B09109372B6BFF35F8F00225D4B1A703D
S214401B40109B5A4A55612BB101225A4B1A70BFF36B
S214401B505F8F62B6236B1193119B43F04F03119333
S214401B60119B23F001031193119B2363236B13F006
S214401B70010FFBD175E1002F5ED0032F5CD008EB40
S214401B808802494B03EB82035B7C13F00C0F24D096
S214401B90236B1293129B43F04F031293129B43F016
S214401BA010031293129B2363236B13F0100FFBD08A
S214401BB0236B1393139B43F04F031393139B23F012
S214401BC001031393139B2363236B13F0010FFBD185
S214401BD000213846384B984743E101213846364B7A
S214401BE09847A0B91423304A03FB082898F81120D8
S214401BF06FF3C71288F81120D8F80C30C8F80830B0
S214401C002A4B5D613A4600214846294B9847236B4C
S214401C101493149B43F04F031493149B23F0010337
S214401C201493149B2363236B13F0010FFBD1002105
S214401C303846214B984714E1012138461E4B9847B9
S214401C40236B1593159B43F04F031593159B23F079
S214401C5001031593159B2363236B13F0010FFBD1F0
S214401C60FFE0216B11F0080F18D0236B1693169BDC
S214401C7043F04F031693169B23F008031693169BC8
S214401C802363236B13F0080FFBD1236B03F4E0634D
S214401C90B3F5807F00F0E580236BE2E00133143239
S214401CA0042B7FF442AED1E0581A00200040034097
S214401CB0AD124000BF0F0020C11340006A4BDB69E5
S214401CC013F4005F13D1684B9B6913F4007F04D074
S214401CD0654BDB6913F4007F09D1634B9B6913F4B2
S214401CE0806F14D0604BDB6913F4806F0FD05E4C6E
S214401CF04FF418532362636101205C4B98474FF4BE
S214401D008073236223614FF400632361A9E0564B3E
S214401D109B6913F4807F19D0534BDB6913F4807FA3
S214401D2014D0514B4FF480721A625A614FF40052ED
S214401D301A614FF400721A614FF480621A612220D1
S214401D404B4B98470020494B98478AE0464BDB6907
S214401D5013F4805F00F085804FF48052424B1A6245
S214401D6000240127434D0134E4B22246394630462A
S214401D70A8471436032CF6D13F4B98473A4B5A683F
S214401D8022F001025A605A6822F002025A609A68AB
S214401D9042F480729A609A6822F07F029A601A6BC8
S214401DA01892189A42F04F021892189A22F4074254
S214401DB022F080021892189A42F400421892189A1A
S214401DC01A631A46136B13F4004FFBD0264A136B64
S214401DD01993199B43F04F031993199B43F40043FF
S214401DE01993199B1363136B13F4004FFBD0EFF357
S214401DF01083B3FA83F35B09179372B6BFF35F8F12
S214401E0000221E4B1A70179B0121174A116123B1FD
S214401E101A4B1970BFF35F8F62B6194B9847124B37
S214401E204FF480721A614FF400621A6119E008EBB1
S214401E308800144A02EB80028819D06030464FF082
S214401E40000BADE53846104B9847B7E5064B9B6907
S214401E5013F4005F7FF432AF35E738460A4B9847B5
S214401E60AFE51BB0BDE8F08F00400340C10F400017
S214401E70ED594000AD12400079094000BF0F0020E8
S214401E8065104000581A0020ED12400010B582B090
S214401E90EFF31083B3FA83F35B09019372B6BFF393
S214401EA05F8F0022144B1A70019C0120134B9847F9
S214401EB02220134B9847134B5A6F22F480725A676E
S214401EC05A6F42F400725A674FF480721A614FF4A8
S214401ED000521A614FF400721A614FF480621A6120
S214401EE04FF400621A612CB10122034B1A70BFF303
S214401EF05F8F62B602B010BDBF0F0020C10F40001A
S214401F00995940000040034030B583B0EFF310834A
S214401F10B3FA83F35B09009372B6BFF35F8F002476
S214401F20274B1C70009D2220264B9847264B9847EF
S214401F30264B502283F8222304225A602346244804
S214401F409A00D11800EB8101497C1A4400EB8202CA
S214401F5001F083016FF3C71151740133032BEFD1A6
S214401F604FF480201B4B984700221B4B1A701B4B8C
S214401F701B78FF2B00D1FEE7EFF31083B3FA83F311
S214401F805B09019372B6BFF35F8F00220C4B1A7049
S214401F900199124A13780133137029B10122084B74
S214401FA01A70BFF35F8F62B60D4B98472DB1012272
S214401FB0034B1A70BFF35F8F62B603B030BD00BFED
S214401FC0BF0F002099594000D557400000E100E07F
S214401FD0581A0020615A4000941A0020441B0020E2
S214401FE08D1E4000002070470C4B5A6822F00102BC
S214401FF05A609A6822F480729A6070B1996821F0AB
S2144020007F0100F07F020A439A609A6842F4807229
S2144020109A605A6842F001025A6070470040034096
S214402020054B5B6813F0010F1DBF034B986800F02B
S2144020307F000020704700BF00400340024B1868F6
S214402040C0F30A00704700BF0040034000207047BE
S214402050014B986099817047501B002000F00F0399
S214402060032B77D8F0B583B09C0004F1402404F5E8
S2144020704034256B15F4004F6ED101F00305012D59
S21440208003D1002B6AD0032B6AD01D1FEDB2022D60
S21440209034BF4FF400754025954263DB5E1E06EB69
S2144020A08607324D05EB870505F11007B5F810E0B9
S2144020B062F3090EA5F810E06A7C02F07F026FF327
S2144020C045126A7410F0800003D07A786FF383026A
S2144020D07A70274EB56A01229A4045EA0203B362F7
S2144020E03546AB6A1A42FCD0214DAB6A23EA02035E
S2144020F0AB62236B0193019B43F04F030193019B1B
S21440210023F4074323F08003019328B10B0203F422
S214402110407343F4044304E00B0203F4407343F477
S2144021200043019A13430193019B2363090201F480
S214402130407141F4044541F40041002814BF2A464A
S2144021400A46236B08B12B4000E00B409A42F8D178
S214402150012008E000207047002004E0002002E054
S214402160002000E0002003B0F0BD00BF581A002059
S2144021700040034000F00F02032A22D800B583B087
S214402180910001F1402101F540310B6B0193019B19
S21440219043F04F030193019B23F400430193019BBB
S2144021A00B630B6B13F4004FFBD1501E00EB80000B
S2144021B00121044B03EB8000034B984703B05DF8C6
S2144021C004FB7047581A0020AD12400000F00F0084
S2144021D0032815D8431E03EB83030A4A02EB830306
S2144021E05B7C13F0200F09D10C30074B53F820309E
S2144021F013F0280F14BF01200020704701207047BD
S21440220000207047581A00200040034000F00F019D
S21440221003295CD810B483B0EFF31083B3FA83F38A
S2144022205B09019372B6BFF35F8F00222C4B1A7086
S214402230019C10F0800F28D04B1E01F10C0229485B
S21440224050F8222012F0100F09D103EB83022648E3
S21440225000EB8202527CC2F38102012A15DD03EBB9
S2144022608302214B03EB82035A7C42F020025A74CD
S214402270012303FA01F11B4B196154B30120184B9B
S2144022801870BFF35F8F62B626E08A0002F14022E4
S21440229002F54032136B0093009B43F04F030093CC
S2144022A0009B43F020030093009B1363136B13F0D3
S2144022B0200FFBD0012303FA01F10A4B196154B1F8
S2144022C00120074B1870BFF35F8F62B604E0002012
S2144022D07047012000E0012003B010BC704700BFEB
S2144022E0BF0F002000400340581A002000F00F00A7
S2144022F003285CD830B583B0441E04EB84022F4BD1
S21440230003EB82035A7C6FF345125A74830003F141
S214402310402303F540331A6B12F0200F49D01A6B56
S2144023200092009A42F04F020092009A22F0200259
S2144023300092009A1A631A6B12F0200FFBD1204DC0
S214402340A96A012202FA00F041EA0002AA6229467E
S2144023508A6A1042FCD01A498A6A22EA00008862D9
S2144023601A6B0192019A42F04F020192019A22F0B2
S21440237008020192019A1A631A6B12F0080FFBD1F9
S21440238004EB84030D4A02EB83035B7C13F0100FCF
S21440239011D0A1000B1902EB8303587C6FF3041095
S2144023A058740C4452F824309847012004E000202A
S2144023B07047012000E0012003B030BD581A0020CD
S2144023C000400340F0B583B000F00F05032D00F247
S2144023D0A380AC0004F1402404F54034266B16F488
S2144023E0004F00F09B806E1E06EB860E514F07EBAB
S2144023F08E077F7C17F0200F40F09280276B17F0F7
S214402400200F40F08F80EFF31087B7FA87F77F09E9
S214402410009772B6BFF35F8F4FF0000E464F87F8B7
S21440242000E0DDF800C006EB860E424F07EB8E0755
S2144024307F7C17F0100F0AD0BCF1000F74D0012239
S2144024403D4B1A70BFF35F8F62B600206FE006EB1D
S214402450860E384F07EB8E0797F811E04EF0100EB9
S21440246087F811E0BCF1000F07D04FF0010E324F55
S21440247087F800E0BFF35F8F62B6DFF8B8C006EBC0
S2144024808607BF000CEB070ECEF80420CEF80830C7
S2144024900022CEF80C20089A4CF8072019B9B3FA57
S2144024A083F35B0900E001232249B700BA1901EB28
S2144024B08202527C63F386123E4401EB8606134644
S2144024C06FF3C7137374EFF31083B3FA83F35B09A8
S2144024D0019372B6BFF35F8F0022174B1A70019EAE
S2144024E00123AB40154A136110F0800F0CD0236BCC
S2144024F013F0110F08D101212846114B984718B107
S214402500002128460E4B984786B101200A4B18708A
S214402510BFF35F8F62B60AE0002008E0002006E0C6
S214402520002004E0002002E0002000E0012003B08C
S214402530F0BD00BF581A0020BF0F002000400340E7
S214402540C1134000F0B587B000F00F05032D00F230
S214402550A180EFF31083B3FA83F35B09059372B659
S214402560BFF35F8F00224C4B1A70059B0124AC4092
S2144025704A4A54612BB10122474B1A70BFF35F8F12
S21440258062B610F0800F09D1AE0006F1402606F57F
S2144025904036336B13F0420F5FD165E0AB0003F17A
S2144025A0402303F540331A6B12F0100F3AD04DB368
S2144025B0032D27D01A6B0192019A42F04F020192E6
S2144025C0019A22F010020192019A1A631A6B12F0D5
S2144025D0100FFBD11A6B12F0100FFBD11A6B029240
S2144025E0029A42F04F020292029A42F0100202927F
S2144025F0029A1A631A6B12F0100FFBD01A6B12F085
S214402600100FFBD01A6B0392039A42F04F020392CC
S214402610039A22F010020392039A1A631A6B12F07E
S214402620100FFBD11A6B0492049A42F04F020492A8
S214402630049A22F001020492049A1A631A6B12F06A
S214402640010FFBD16B1E03EB8302154B03EB82039A
S2144026505A7C6FF383025A7406E0124F2846B847F6
S214402660336B13F0420FF9D10C4A936A23439362BB
S214402670936A1C42FCD0094A936A23EA0404946293
S214402680681E00EB80002A460121054B03EB8000C4
S214402690054B984707B0F0BDBF0F002000400340F1
S2144026A0581A0020ED124000AD1240002DE9F04FC0
S2144026B089B08246894601923448354DA847354808
S2144026C0A8470AF1FF350AF11308334F304E15F884
S2144026D0011F3846B0474545F9D130482C4B9847FE
S2144026E009F1FF3509F113082B4F294E15F8011F44
S2144026F03846B047A845F9D1294D2846294B984732
S214402700142249462846284EB047142251462846A9
S214402710B04703A92846254B984725481C4B984761
S2144027200DF10B060DF11F0835461B4C184F15F8DA
S214402730011F2046B8474545F9D11E48144B9847D7
S214402740019A551E02F11307A946DFF84CB0104C0B
S21440275019F8011F5846A047B945F9D1019A117892
S21440276016F8013F4B4002F8013B4645F7D1124868
S214402770074B9847084E064C15F8011F3046A047B1
S214402780AF42F9D109B0BDE8F08F00BF70DF40001E
S214402790795E400088DF40009CDF4000A4DF4000B8
S2144027A0482300200D4740006548400061494000EE
S2144027B0B8DF4000CCDF4000E0DF40002DE9F843C2
S2144027C081460E4601462D482D4CA0472D48A04731
S2144027D02D4C04F11405DFF8C080294F14F8011F72
S2144027E04046B847AC42F9D12848254B9847284C34
S2144027F0DFF8A480224F15F8011F4046B847A5428F
S214402800F9D124481E4B9847DFF8A880224F1C4D2C
S21440281014F8011F3846A8474445F9D11F48184CBC
S214402820A0471F4B93F83C101B48A0471D48A047A5
S2144028304FEA891909F12C041B4B1C4409F1400945
S21440284009EB0305DFF850800D4F14F8011B404696
S214402850B847AC42F9D11548094B9847741E133611
S2144028600D4F074D14F8011F3846A847B442F9D11A
S2144028700F48034B9847BDE8F88300BFF4DF40009D
S214402880795E40001CE040000323002034E0400016
S2144028902B2300204CE040009CDF400064E04000DA
S2144028A0042300207CE04000681B002094E04000A9
S2144028B09CE940003F2300202DE9F04F85B00446B8
S2144028C00E46A048A04DA8472146A048A8473146F6
S2144028D09F48A847012C05D0002C00F02C81022CE4
S2144028E00CD01CE09B4B1D882D3DABB20393194684
S2144028F09948954B98474FF0000B16E0954B1B8830
S214402900A3F15A05AAB203922D3B1FFA83FB114648
S21440291091488D4FB84759469048B84705E02146FC
S2144029208F48894B9847FF2008E1012E03D05EB1BF
S214402930022E0CD002E04FF00E080AE031468948DD
S214402940814B9847FF20F9E04FF00A0801E04FF02E
S2144029501208414684487C4FB84704EB4406A6EB31
S21440296006167C4B1B881E44C8EB0606B6B231469C
S2144029707E48B847DFF80CA27D4FD7F80630CAF835
S2144029800030DFF8049248467A4B98470422514676
S2144029904846DFF8F8A1D047324607EB08014846DC
S2144029A0D047DFF8EC8141464846734B9847DFF8FE
S2144029B0E4A1534653F8041FD3F804E09E68D86851
S2144029C0C8F81410C8F818E0C8F81C60C8F820000A
S2144029D01969C8F82410534653F8182FD3F804E062
S2144029E09868D968C8F82820C8F82CE0C8F830009D
S2144029F0C8F834101A69C8F838204FF0000388F831
S214402A003C30DFF89491CDF800903D2342461421A7
S214402A100AF12C00594DA84749460020584B984784
S214402A20039DE819DAF80030EB51291DCB19D8F888
S214402A302820D8F82CA0D8F830C0D8F834E0CA51AE
S214402A40C3F804A0C3F808C0C3F80CE0D8F8382090
S214402A501A6198F83C3003761935EB19D9F80020FE
S214402A60D9F80460D9F80800D9F80C10EA515E602D
S214402A709860D960D9F810201A61022C5DD147467B
S214402A80DFF81081434653F8441F5D689C68D86859
S214402A907961BD61FC61386219697962434653F8D1
S214402AA0582F5C689868D968BA62FC623863796364
S214402AB01A69BA63002487F83C404E46CDF8009029
S214402AC03D233A46142108F16C00DFF8B090C84721
S214402AD0314601202A4B9847254A0BEB020ED8F880
S214402AE040304BF802300BF104008318B96AD7F82F
S214402AF02C90D7F83080D7F834C08150C3F8049073
S214402B00C3F80880C3F80CC0B96B196197F83C301D
S214402B108EF818300BF1190399183068D6F804E08F
S214402B20B768F5689850C1F804E08F60CD603069AA
S214402B300861204602E0002000E0002005B0BDE825
S214402B40F08F00BFACE04000795E4000C4E040003B
S214402B50D8E0400042230020F0E0400010E1400072
S214402B6030E140004CE140006CE140008CE1400028
S214402B70E81B00200D47400061494000D14A400014
S214402B80BD274000482400204823002065484000D8
S214402B9004230020681B0020042200202DE9F04F6B
S214402BA083B005460C468148814EB0472946814849
S214402BB0B04721468048B0478048814B984787B207
S214402BC0012C03D05CB1022C0CD002E04FF00E0971
S214402BD00AE021467B48764B9847FF20E3E04FF0DB
S214402BE00A0901E04FF0120949467748DFF8C081EC
S214402BF0C047C5EBC524C5EB8404C5EBC404A4B2EA
S214402C00724B1E882644C9EB0606B6B2314670485B
S214402C10C047DFF8FCA150466E4B9847DFF8F4916A
S214402C20042249465046DFF8F0B1D84704226A49A4
S214402C305046D847324609F104015046D847674EB9
S214402C4031465046664B98473C44A9F1060111FA76
S214402C5084F464482268D4F804C0D4F808E0E168F4
S214402C604260C0F808C0C0F80CE0016122694261C9
S214402C704168D0F80890D0F80CC0D0F810E07161E8
S214402C80C6F81890C6F81CC0C6F820E041697162C4
S214402C90034653F8181FD3F80490D3F808C0D3F867
S214402CA00CE0B162C6F82C90C6F830C0C6F834E0E6
S214402CB01969B163237D86F83C30DFF84C91CDF836
S214402CC000903D23324614212C30474EB0474946AB
S214402CD00020464B98474648C047142204F1150149
S214402CE04846444B984710B14348C04702E04348E3
S214402CF02F4B984742482E4B9847022D4FD1013DC7
S214402D00C5EBC524C5EB8404C5EBC4053D443D4C2A
S214402D1014FA85F4334822686668A568E168426418
S214402D208664C5640165226942652C4A456CD0F8C4
S214402D3048E0C76C066D5561C2F818E0D761166268
S214402D40456D5562034653F8585FD3F804E09F68D4
S214402D50DE689562C2F82CE0176356631D6995637A
S214402D60002382F83C30284D00953D2314216C30DA
S214402D701D4EB047294601201C4B984723480C4B14
S214402D809847142204F1150128461A4B984718B163
S214402D901948074B984702E01848054B984718488B
S214402DA0034B9847002003B0BDE8F08FA8E14000F1
S214402DB0795E4000C4E04000BCE14000EA1B0020D1
S214402DC01D554000D4E140006CE140004223002005
S214402DD0F4E140000D474000482400200423002032
S214402DE061494000681B0020D14A4000BD27400092
S214402DF010E24000C95E400034E240003CE2400041
S214402E009CE94000E81B00200422002044E24000E9
S214402E1048230020EE1B0020654840002DE9F8437B
S214402E200E4B1E88B6B105460024DFF838800C4F9E
S214402E30230158F803102846B84720B9094800EB44
S214402E400410BDE8F8830134A3B29E42F0D80020B7
S214402E50BDE8F8830020BDE8F88300BFEC050020FD
S214402E60C9634000880200202DE9F8430D4B1E88B8
S214402E70AEB105460024DFF834800B4F58F83410C6
S214402E802846B84720B9094800EBC400BDE8F88397
S214402E900134A3B29E42F1D80020BDE8F88300205A
S214402EA0BDE8F883EC050020C96340000008002018
S214402EB0044B03F58061002203F8012F8B42FBD1BF
S214402EC0704700BFE71B002008B501210846014BAC
S214402ED0984708BDFD4E400070B51048104B9847C7
S214402EE0104C4FF48072104904F10E000F4B984777
S214402EF00F4B19685E689D68D868C4F81211C4F80C
S214402F001661C4F81A51C4F81E011969C4F8221192
S214402F1001210846074B984770BD00BFD4E24000E9
S214402F20795E4000E81B0020042100202D5F400011
S214402F3004200020FD4E400070B51248124B9847C2
S214402F4001210846114B98471148124B984728B123
S214402F5011480D4CA0471148A04770BD104B1A7839
S214402F60920110495018104B1C68545053F8041FD7
S214402F705E689D68DC6841608660C560046119696A
S214402F80416170BDF0E24000795E4000FD4E400079
S214402F90EE1B00201D55400008E3400028E340009B
S214402FA044230020681B0020F21B00202DE9F04F30
S214402FB083B006468A4615461C460746DFF8AC9060
S214402FC0DFF8AC80BB1B5FFA83FB14B1012C21D029
S214402FD0FBE70DF107014046C8479DF8071000295A
S214402FE0F3D00D2903D100BF00233B702EE00AF139
S214402FF0FF339B4507DA4046164B98479DF8073007
S21440300007F8013BDEE700233B7039461248114B78
S21440301098471BE0114B186842685368013B536061
S214403020002B04DA41680E4B9847C3B204E042686E
S2144030301368591C11601B7802A800F8023D094B22
S2144030409847014628600848024B984703B0BDE8B9
S214403050F08F00BF795E40003CE34000F013002054
S214403060C5614000215E4000A4E24000A15E4000F1
S21440307038E340002DE9F04F83B03A483A4B984742
S2144030803A483B4B984784B2002C47D03948364B99
S214403090984704F1FF3B1FFA8BFB0BF1020B4FF0F6
S2144030A0000A4FF00109304EDFF8C080324F4946E3
S2144030B03248B0471FFA8AF423464FEA8905A542AC
S2144030C008DD18F803103846B0470134A4B223464A
S2144030D0A542F6DC09F101090AF1040AD945E6D110
S2144030E0274E214C274D3046A047012301AA0021F8
S2144030F00846A847019B5A1E042A02D92248A047E0
S214403100F1E7013B0193194800EB83001F4B9847BA
S2144031101F4B98470446FF280CD105E01D48124C2B
S214403120A0471D48A0471AE01C480F4CA0471A4825
S214403130A04714E01A4D29461A4B984701210846E5
S214403140194B9847281F114B984728B11748064CEB
S214403150A0471148A04702E02046154B984703B0C9
S214403160BDE8F08F48E34000795E4000042100202F
S214403170194C400064E340009CDF40007CE3400084
S2144031808CE34000AD2F4000ACE340001D554000AE
S214403190314C4000C4E34000DCE34000F0E3400034
S2144031A0F21B00202D4C4000FD4E40000CE4400039
S2144031B0FD4B400010B504461B481C4B9847A37A6D
S2144031C0202B2FD8DFE803F011231D292929292990
S2144031D0292929292929292929292929292929291A
S2144031E02917292929292929290026281AD11048AA
S2144031F0104B984710BD032814D10F480D4B9847E5
S21440320010BD08280ED10D480A4B984710BD2628F9
S21440321008D10748074B984710BD262802D10848D2
S214403220044B984710BD00BFEE1B00201D554000C4
S2144032302CE44000795E400080E44000CCE440004E
S21440324008E54000837A112B0CD110B582B00648B1
S214403250837C427C017CC07C00900448044CA047A0
S21440326002B010BD704700BFE81B00205CE5400080
S214403270795E4000F0B583B004463F493F4B9847DF
S21440328018B93F483F4B984732E03F4920463B4BB2
S214403290984718B93D483B4B984729E03C4920465B
S2144032A0364B984718B93B48364B984720E03A4942
S2144032B02046324B984718B93848324B984717E063
S2144032C0374920462D4B984718B936482D4B9847D6
S2144032D00EE035492046294B984728B93348294DB2
S2144032E0A8473348A84703E021463248254B98472D
S2144032F02046314B9847054628B921462F48214B52
S2144033009847002035E020462D4B9847074628B979
S21440331021462A481B4B984700202AE0294B9847CD
S214403320294E2A8969683046284B98472A89284B6F
S2144033301A807B6828469847B01D264B984740B170
S214403340214625480F4B98472846244B984701244A
S21440335006E023480B4B98472846224B98470024C4
S2144033602148084B98470DF107012048204B9847C5
S214403370204603B0F0BD00BF80E54000C963400072
S21440338098E54000795E4000C4E54000D4E5400042
S21440339000E6400010E6400044E640004CE64000B0
S2144033A088E6400070E6400090E64000A0E6400018
S2144033B0C8E64000ECE640001D2E400004E7400012
S2144033C0692E4000B12E4000E81B00202D5F4000D3
S2144033D0422300201D5540001CE74000B531400008
S2144033E02CE74000453240003CE7400038E34000D0
S2144033F0A15E40002DE9F04391B005466B486C4B0A
S21440340098476C486C4B984728B16C48684CA04726
S2144034106B48A047C6E000BF6A4B9B7B012B03D19D
S2144034206948634B9847BDE06848634B984748B146
S2144034306748614B984728B166485D4CA04760484E
S214403440A047AFE0644B01AC186859689A68DB68DF
S2144034500FC4624C1022214601A8614B984706468D
S2144034604FF4807221465F485F4B98471EBB5F4CC7
S2144034705F4B1A685E689868D96822606660A0608C
S214403480E1601A69226120465A4B98475A484A4B8F
S21440349098474FF4807259495948534B9847594B6F
S2144034A01A685E689868D96822606660A060E160C5
S2144034B01A6922612CE05448DFF8F490C84700238C
S2144034C01A46292105A8DFF88881C04705A84F4F2E
S2144034D0B847464C2246014605A84D4EB0472046C2
S2144034E0444B98474448344B98474FF4807243497E
S2144034F043483D4B98474748C84700231A4629212A
S21440350005A8C04705A8B8472246014605A8B047C3
S2144035103648414B98473848274CA0474FF480726E
S21440352036493E48304B984700223D4B1A703D483E
S214403530A04728B13C481E4CA0473C48A04731E035
S2144035402A893B4B1A801F4E69683046264CA04756
S2144035504FF480773A462A4906F11000A0473A468B
S2144035602E4906F58A70A0472D4E3078314C04EB34
S21440357080102C30304B9847307804EB8010002178
S21440358018302E4B9847297BE87A2D4B98472D4884
S214403590074B9847012108462B4B9847697BE87AAA
S2144035A02A4B984711B0BDE8F08300BF5CE7400067
S2144035B0795E400080E540007532400078E7400084
S2144035C0DCE34000E81B002098E7400044E640006B
S2144035D000E64000D0E740001C0F00200E1C0020F4
S2144035E0C95E4000042100202D5F400004200020DA
S2144035F0A4050020014C4000F8E74000F61B0020E0
S21440360004220020880A002000E84000C1664000EE
S214403610094A40001CE84000054C40004823002072
S2144036204423002088E6400008E3400028E34000AA
S21440363042230020681B0020094C4000D55440001F
S214403640B928400034E84000FD4E40009D2B400025
S214403650AD2F40002DE9F04F8DB004466848694BC9
S21440366098476948694B98478246002268496948A6
S214403670694B98470B90FF2800F0BE800022674BAE
S2144036801A7067490120674B98470B9848B9664DB2
S21440369029464FF08040654B9847281D644B984715
S2144036A00BE0614D01382946C0B2624B98470B98F3
S2144036B00138291DC0B2604B98476048604B984718
S2144036C028B160484F4CA0475F48A04794E05F4E03
S2144036D0B24422895E4B1A80A6F1260561682846C8
S2144036E05C4B98475C48474FB8474F4B1B6846F87B
S2144036F01C3C5A48B84700231A4629216846DFF83A
S2144037009891C8476846DFF8A0B1D847A6F1180890
S214403710424601466846524B98475248B8473F4B48
S21440372018788001504B1918084642462C31043010
S2144037304E4B98474E48B8470AF1040800231A46AD
S21440374029214046C8474046D84751460130DFF811
S214403750DCB0D847301FDFF8B490C84780465046A4
S214403760C847A6F1240A4044313030445146401BF5
S214403770D8475046C847364B1880284B18783A4B9F
S21440378003EB8010002118303A4B9847217BE07AB3
S214403790394B98473048B84701210846374B984739
S2144037A0A6F12000C84720B13548B8473548B84745
S2144037B022E0617BE07A344B984728B13348114C7D
S2144037C0A0473348A04717E0324E0E4C324D3046A5
S2144037D0A04701230BAA00210846A8470B98431E82
S2144037E0042B02D92D48A047F1E70138C0B22C4B34
S2144037F098472C48034B98470DB0BDE8F08F00BF64
S21440380050E84000795E40000A1C00201D554000EC
S2144038106CE84000042100209956400044230020D4
S214403820E81F002015554000EA1F002005554000BF
S2144038300D4C40002D4C4000294C400094E8400080
S214403840753240009CE84000DCE340000E1C00203F
S214403850422300202D5F4000C0E84000D8E84000EA
S214403860094A400004E94000681B0020AD2640009D
S21440387024E94000D5544000B9284000FD4E4000A1
S21440388050E9400028E340009D2B40006CE9400092
S21440389090E94000A0E94000AD2F4000ACE3400076
S2144038A00D4B4000D0E94000C1664000F0B587B0FF
S2144038B005465B485B4B984700225B495B485C4B40
S2144038C09847FF2800F0AA8004460022594B1A70F9
S2144038D059485A4B984728B15948524CA0475948DE
S2144038E0A0479BE0534E30780021574B03EB8010A7
S2144038F0564B9847012333704F48504B984728B152
S2144039004F48484CA0474F48A04787E0494E30783C
S21440391000214D4B03EB80104C4B98472A894C4B6B
S2144039201A8069684B484C4B98470023337064B9FB
S2144039304A494FF080404A4B98473078494B03EB12
S21440394080100430484B98470EE0013CE4B24349AF
S2144039502046464B9847374B1978424B03EB81112C
S21440396004312046424B98470122324B1A70414858
S2144039702C4B984700231A46142168463E4CA047D5
S21440398068463E4B98473E4A014668463D4B9847F8
S2144039903D4F244C384E3846A047012305AA002107
S2144039A00846B0470598431E042B02D93748A0471F
S2144039B0F1E7C0B2364B984730B905993548194CAF
S2144039C0A0472048A04729E0334C21469DF81400E4
S2144039D0324B9847297BE87A314B98473148114B10
S2144039E0984701210846304B9847A4F108002F4BD2
S2144039F0984748B921462E482E4B9847697BE87A27
S214403A002D4B984738B103E00E48064B984705E0E3
S214403A102A48044B98472A48024B984707B0F0BDBF
S214403A20FCE94000795E40006CE84000042100203C
S214403A30995640004423002088E6400075324000F6
S214403A4008E3400028E34000801B0020D554400097
S214403A5042230020E81B00202D5F4000F21B002080
S214403A6005554000901B00200D4C40002D4C40005A
S214403A70294C4000D8E84000AD2F4000C1664000C9
S214403A80D41B0020094A400018EA4000ACE340003E
S214403A90594B400044EA4000F61B0020554B40007E
S214403AA0B92840006CEA4000FD4E40001D554000DD
S214403AB084EA4000596340009D2B40006CE940007A
S214403AC098EA400010B504461348144B98471448EB
S214403AD0144B984728B11448104CA0471348A047A9
S214403AE010BD13480F4B984718B110480B4B9847DA
S214403AF010BD22890F4B1A8061680F480F4B9847BC
S214403B000F48064CA047012108460E4B98470E48E2
S214403B10A0470E48A04710BDC4EA4000795E40006A
S214403B20E4EA400075324000F8EA400028E34000EE
S214403B3020EB400042230020E81B00202D5F400081
S214403B402CEB4000FD4E400058EB40008CEB400014
S214403B5010B504461348144B98471448144B9847DE
S214403B6028B11448104CA0471348A04710BD13482E
S214403B700F4B984718B110480B4B984710BD2289F9
S214403B800F4B1A8061680F480F4B98470F48064CFA
S214403B90A047012108460E4B98470E48A0470E48BE
S214403BA0A04710BDD0EB4000795E4000E4EA4000FC
S214403BB075324000F8EA400028E34000F4EB40004D
S214403BC042230020E81B00202D5F400008EC400008
S214403BD0FD4E400028EC40008CEB40002DE9F04FB5
S214403BE093B004469748984B984700229749984880
S214403BF0984B98471190FF2800F0C8810022964BBA
S214403C001A7096490120964B9847119848B9954D99
S214403C1029464FF08040944B9847281D934B984731
S214403C200BE0904D01382946C0B2914B9847119809
S214403C300138291DC0B28F4B98478F488F4B984705
S214403C4028B18F48804CA0478E48A0479EE12289E5
S214403C508D4B1A808D4D616828468D4B98478D4810
S214403C60DFF8E481C047DFF8F0A19AF80000800151
S214403C701830894E00213044884B98478848C047C2
S214403C8000231A4629216846DFF834B2D8476846EA
S214403C90844B98470BAA01466846DFF84092C847CF
S214403CA005F122070DF12C0EBEE80F00C5F82200E4
S214403CB0C5F82610C5F82A20C5F82E30DEF80000D4
S214403CC0C5F832007848C04700231A46292168467E
S214403CD0D8476846734B98470BAA01466846C8477C
S214403CE005F10E090DF12C0EBEE80F00C5F80E00CA
S214403CF0C5F81210C5F81620C5F81A30DEF80000D0
S214403D00C5F81E006948C0479AF80000800131187F
S214403D1008464A462C310430DFF8C491C847644808
S214403D20C0479AF800008001311818303A462C31C6
S214403D303044C8474B4B1B68C5F80A30DFF8A481AF
S214403D40414D5C4F4046A8473846A8475A48A84782
S214403D505A48A847012310AA00210846584EB047A3
S214403D60109B012B02D0022B0ED01BE0554E314645
S214403D7011203B4DA84706F10B010320A84706F14A
S214403D800D010120A847F2E04E4E31461020344D3A
S214403D90A84706F10B010120A84706F10D010220B5
S214403DA0A847E4E04848A847CCE74046A8473846F6
S214403DB0A8474648A8474648A847012310AA0021D6
S214403DC008463F4EB047109B012B02D0022B05D031
S214403DD009E040490220244B9847CDE03D49002069
S214403DE0214B9847C8E03848A847DEE74046A847F2
S214403DF03846A8473848A8473548A847012310AA58
S214403E00002108462E4EB047109B012B02D0022BB5
S214403E1005D009E001221D4B83F84020B1E0002286
S214403E201A4B83F84020ACE02748A847DEE70D4D04
S214403E3029464FF080400C4B9847281D0B4B98471F
S214403E405EE000BF60EC4000795E400084EC4000DD
S214403E50042100209956400044230020E81F0020FB
S214403E6015554000EA1F0020055540000D4C400007
S214403E702D4C4000294C400094E8400075324000EC
S214403E8008E3400028E3400042230020E81B0020CF
S214403E902D5F4000A8EC4000681B0020D554400031
S214403EA0C4EC4000C1664000E8EC400008ED40002D
S214403EB028ED40004CED400060ED400078ED4000BD
S214403EC0AD2F4000221C00209CED4000C4ED400079
S214403ED0DCED4000241C00202CEE4000094A400047
S214403EE0AD2640009CE940002A4D01382946C0B224
S214403EF0294B984711980138291DC0B2274B98473F
S214403F00217BE07A264B984701210846254B984767
S214403F102548264B984728B12548264CA047264892
S214403F20A04733E0617BE07A244B984728B1244889
S214403F30204CA0472348A04728E0234E1D4C234D45
S214403F403046A047012311AA00210846A8471198E9
S214403F50431E042B02D91E48A047F1E701380BA99F
S214403F60C0B21C4B98471C48124B98470EE0DFF8EF
S214403F707480104D194F18E7DFF868800D4D184FC4
S214403F8034E7119800283FF452AFADE713B0BDE8D0
S214403F90F08F00BFEA1F00202D4C4000294C400007
S214403FA0B9284000FD4E4000EE1B00201D55400045
S214403FB054EE4000795E4000DCE340009D2B40001C
S214403FC06CE9400090E9400070EE4000AD2F4000A4
S214403FD0ACE340009D4B400098EE4000B0ED400002
S214403FE000EE40009CE940002DE9F04180465948EB
S214403FF0594B9847594F584D594C3846A847012376
S214404000224600210846574EB04723685A1E042AC7
S21440401002D95548A847F0E713B1013B504A136010
S2144040204F4B1878514B984740B94D4B19685048FC
S214404030494CA0474F48A047BDE8F0814E484F4BFB
S214404040984730B14E48444CA0474E48A047BDE83C
S214404050F081B8F808204C4B1A804C4CD8F8041025
S21440406020464B4B984704F10E013D4B1878494B80
S2144040709847024640B93A4B19684748364CA047DD
S2144040803C48A047BDE8F0813F4B18882D3010448F
S21440409080B218804149424B98470024414B1C70DF
S2144040A021464148414B9847224641494148424B68
S2144040B09847424B1860FF284AD068B940494FF0AD
S2144040C08040374B9847374B18783E4B03EB801071
S2144040D004303D4B984710E001383949C0B23B4B5D
S2144040E09847304B1978374B03EB8111334B1868A0
S2144040F001380431C0B2364B984798F80C1098F8FF
S2144041000B00344B984701210846334B98473348B9
S214404110334B984730B133480F4CA0471948A04717
S214404120BDE8F08198F80D1098F80B002E4B984794
S21440413030B12E48084CA0472D48A047BDE8F08136
S2144041401F49074B18782B4B98472B48024B9847EC
S214404150BDE8F081CCEE4000795E4000E8EE4000DD
S2144041609C1A0020AD2F4000ACE34000F54B4000C9
S21440417014EF400028E3400088E6400075324000D7
S21440418040EF4000DCE3400042230020E81B0020D4
S2144041902D5F4000F14B400064EF4000EA1B0020DA
S2144041A00555400044230020801B0020D554400085
S2144041B084EC40000421002099564000A01A0020BC
S2144041C0F21B0020901B00200D4C40002D4C400060
S2144041D0294C4000B9284000FD4E4000EE1B002010
S2144041E01D5540008CEF40009D2B40006CE9400080
S2144041F090E94000F94B4000A8EF400038B504462F
S2144042001848194B98471948194B984728B11948E8
S214404210154CA0471848A04738BD2289174B1A802E
S214404220174D61682846174B984701210846164B9C
S2144042309847A81D154B984718B9154B9847154BE6
S214404240984715480A4B984728B11448064CA0474B
S2144042500948A04738BD1248034CA0471148A0471C
S21440426038BD00BFD8EF4000795E4000E4EA400029
S21440427075324000F8EA400028E340004223002020
S214404280E81B00202D5F4000FD4E40001D554000BD
S214404290154C4000114C400000F0400014F0400027
S2144042A044F0400078F04000F8B5054600222A4B1E
S2144042B01A702A482A4B984728B12A482A4CA047C1
S2144042C02A48A047F8BD2A89294B1A806968294898
S2144042D0294B98470122294929482A4B9847FF28C5
S2144042E039D00138C4B228492046284B984728B9C7
S2144042F027481D4CA0471D48A047F8BD164F3978A3
S214404300244E06EB81112C312046234B98473878B3
S21440431006EB801000211830204B9847297BE87A1E
S2144043201F4B98471F48104B9847012108461E4B85
S21440433098471E481E4B984718B11E480A4B984748
S214404340F8BD697BE87A1C4B984720B11B48064C61
S214404350A0471B48A047F8BD4423002088E64000FD
S2144043607532400040EF4000795E4000DCE340009C
S21440437042230020E81B00202D5F4000A8F04000AC
S2144043800421002099564000F21B00202D4C40008E
S214404390C8F04000681B0020294C4000D55440001F
S2144043A0B9284000F4F04000FD4E4000EE1B0020CF
S2144043B01D55400010F140009D2B40006CE9400028
S2144043C090E9400070B582B004464848484B98474C
S2144043D00022484B1A704848484B984728B14848EE
S2144043E0434CA0474748A0477EE02289464B1A8068
S2144043F061684648464B9847012246494648474BDF
S21440440098470190FF286FD068B945494FF08040E3
S214404410444B9847374B1878434B03EB8010043097
S214404420424B98470FE001383D49C0B2404B984751
S214404430304B19783C4B03EB81110198013804311D
S214404440C0B23C4B98473C48294B9847324D0023D6
S2144044501A4629212846394EB0472846384B9847B1
S214404460384E324601462846374B9847214B1878F7
S2144044700021364B03EB8010354B9847217BE07A82
S214404480344B984701210846334B9847A6F10C0019
S214404490324B984728B13248154CA0471948A04798
S2144044A022E0617BE07A2F4B984728B12E48104C8B
S2144044B0A0472E48A04717E02D4E0D4C1F4D3046C6
S2144044C0A047012301AA00210846A8470198431E99
S2144044D0042B02D92748A047F1E70138C0B2264B43
S2144044E098472648024B984702B070BD2CF14000D2
S2144044F0795E40004423002088E640007532400044
S21440450040EF4000DCE3400042230020E81B002050
S2144045102D5F400044F140000421002099564000A1
S214404520F21B002005554000901B00200D4C40001B
S2144045302D4C4000294C400064F14000AD2F400017
S214404540C1664000FA1B0020094A4000801B00203C
S214404550D5544000B9284000FD4E40001D5540004F
S21440456090F140009D2B40006CE9400090E94000EF
S214404570A4F14000ACE340005D4B4000D4F1400065
S2144045802DE9F04182B005464448454B984728B14E
S2144045904448454CA0474548A0477BE0444C20460D
S2144045A0444B984787B204F10408B84407F11C020C
S2144045B092B2A4F1180140463F4B98472A893F4B98
S2144045C01A80223C696820463D4B98473D48364B0A
S2144045D098473D4D00231A46292128463B4EB04772
S2144045E028463B4B984704F10E0201462846394B75
S2144045F09847394E2C4C354D3046A047012301AAEA
S21440460000210846A847019B5A1E042A02D933486F
S214404610A047F1E70BB1013B01939DF80400304BF6
S214404620984730B901992F481F4CA0472E48A047BD
S21440463030E02E499DF804002D4B9847054630B98A
S21440464001992C48184CA0472748A04722E02A4802
S214404650154B9847164C21462846284EB04708F139
S2144046601800144DA8474237384480B2134B188080
S214404670A4F12001B04701210846214B9847A4F1F8
S2144046801C00A84718B11F48074B984702E01E4831
S214404690054B984702B0BDE8F08100BF00F24000ED
S2144046A0753240000CF24000795E4000DCE340008A
S2144046B00A1C00201D554000616040004223002037
S2144046C02D5F400034F2400004210020AD2F400012
S2144046D0C1664000094A400070F24000ACE340002A
S2144046E0994B4000B0F2400028E340000E1C0020EA
S2144046F0954B4000E0F2400010F340000555400066
S214404700FD4E400030F3400054F3400038B50546B7
S2144047105C220021054B9847054C0FCC2860696009
S214404720AA60EB602068286138BD00BF2961400060
S214404730380F00202DE9F04F83B00191011F00F1A2
S2144047403C0400230A7942EA03234A7942EA0323D7
S2144047508A7942EA0322CB7943EA022341F8043FAE
S214404760A142EFD1019A1768D2F804E09668D5685E
S21440477011690024DFF8E090DFF8E080DFF8E0A081
S21440478002E035465E4617465FFA84FB0BF00F0C98
S21440479050F82C3003EBF7621144BBF1130F07D8E7
S2144047A086EA050202EA0E026A4052440A4421E0C2
S2144047B0BBF1270F05D88EEA06026A4042440A44F7
S2144047C018E0BBF13B0F0AD846EA050202EA0E0B98
S2144047D006EA05024BEA02024A440A440AE08EEA26
S2144047E006026A4002F14A4202F5C50202F58342D9
S2144047F056320A444FEABE0BE11E01F00F0150F854
S21440480021104B40A4F1080101F00F0150F821108F
S2144048104B40A4F10E0101F00F0150F821104B401F
S2144048204FEAF37340F82C300134BE462946502CEC
S214404830A7D101990B681A440A604B681F444F6021
S2144048408B685B448B60CB681E44CE600B691D440E
S2144048500D6103B0BDE8F08FDCBC1B8FA1EBD96EB9
S2144048609979825A2DE9F04F83B0057D161E35DDC5
S2144048700746884605F03F05C5F14005EDB200F114
S2144048801C0ADFF864B0B5421CDDF4B2CDF804A0D3
S214404890A146C5F14000224641465044D847A04470
S2144048A0361BAC4203D1394601980E4B98477B697C
S2144048B04B447B6113B9BB690133BB614025002E75
S2144048C0E1DC0BE0CDF804A0C5F140002A464146A5
S2144048D05044D847A844761BA946E4E703B0BDE851
S2144048E0F08F00BF354740002D5F40002DE9F04374
S2144048F083B006460F461446174B98472CB37D1E8A
S214404900631E57FA83F74FF00109DFF8508015F819
S214404910013F83F036038DF807304A460DF1070114
S2144049203046C047BD42F2D136238DF807303F2C83
S2144049300FD80127094D3A460DF107013046A847E2
S2144049400134E4B23F2CF6D903E036238DF8073025
S214404950EFE703B0BDE8F0830D47400065484000F0
S21440496070B504460D46406900F03F00231880228B
S2144049701A77431C3F2B06D80021E21811770133E3
S214404980DBB2402BF9D137280AD904F11C06214660
S21440499030461B4B9847402200213046194B9847DB
S2144049A06369DB0004F15B0204F1570102F8013948
S2144049B01B0A8A42FAD1A3696269520F42EAC303CC
S2144049C004F1530201F801391B0A9142FAD12146FB
S2144049D004F11C000A4B98472B1D043C183554F82C
S2144049E0042F03F8012C110A03F8021C110C03F8DB
S2144049F0031C120E03F8042C04339D42EFD170BD05
S214404A003547400029614000F8B506460F46154632
S214404A10064C2046064B98473A4631462046054BBC
S214404A20984729462046044B9847F8BDA41A0020CC
S214404A300D47400065484000614940002DE9F04779
S214404A4082B006460F4614469A4619461D4B98476E
S214404A5030461D4B984774B37D1E631E57FA83F746
S214404A604FF00109DFF8648015F8013F83F05C03DE
S214404A708DF807304A460DF107013046C047BD4223
S214404A80F2D15C238DF807303F2C0AD801270F4D12
S214404A903A460DF107013046A8470134E4B23F2CB0
S214404AA0F6D9142251463046084B98475146304670
S214404AB0044B984703E05C238DF80730E6E702B0E6
S214404AC0BDE8F087614940000D474000654840001A
S214404AD0F0B599B004460D4616461F460A460146AE
S214404AE001A8074B98473A46314601A8054B9847D8
S214404AF01E9B2A46214601A8034CA04719B0F0BD8C
S214404B00ED484000654840003D4A4000F8B506463E
S214404B100A4C20460A4FB847251D05442846B84744
S214404B2004302844211F411A89B20648064CA04743
S214404B30711C0648A0470648A047F8BDF61B002053
S214404B401D5540007CF34000795E400090F34000E5
S214404B50B4F34000002070470020704738B5054643
S214404B600648074B984781B20648074CA047294657
S214404B700648A0470648A04738BD00BFF21B0020A5
S214404B801D554000C4F34000795E4000DCF3400011
S214404B90B4F340000020704700207047F8B5064642
S214404BA00D4C20460D4FB847251D05442846B847AE
S214404BB0043005442846B84704302844A4F123016D
S214404BC0411A89B20648074CA047711C0648A047C0
S214404BD00648A047F8BD00BF151C00201D554000E4
S214404BE008F44000795E400018F44000B4F34000FA
S214404BF00020704700207047FF2070470020704715
S214404C000020704700207047002070470020704703
S214404C10704700BF704700BF1423013B13F0FF03EB
S214404C20FBD10020704700BF01207047012070472D
S214404C301423013B13F0FF03FBD1FF20704700BF56
S214404C40F8B50C4B1B888BB100240B4F0B4D0C4E0C
S214404C5014F00F0F01D13846A847315D0948A847E0
S214404C600134A4B2034B1B88A342F1D80248034B3D
S214404C709847F8BD422300209CE94000795E4000FA
S214404C80E81B00209CDF40002DE9F04F85B007462A
S214404C9089469046554B98477D1E07F1030A544C6B
S214404CA0544E00231A4615F8011F2046B047236984
S214404CB013F0010FFBD00DF10F0203A920464E4B17
S214404CC098475545EDD10025494CDFF828A14A4E76
S214404CD0EAB2BDF80C3013F0010F7DD100231A461E
S214404CE0FF212046D047236913F0010FFBD00DF17A
S214404CF00F0203A92046B047652D06D13F4B984783
S214404D003F48404B984701206DE00135BDF80C30D8
S214404D1013F0010FDCD0B8F10A0F60D13B78802B3E
S214404D2014BF00230123019301E0002301930026D2
S214404D3035462F4CDFF8C0A00097009B1B78802B91
S214404D4006D100231A46FF2120462A4FB84707E0DF
S214404D50009B991900231A4609792046254FB847E3
S214404D60009F236913F0010FFBD000970DF10F024F
S214404D7003A92046D047BDF80C3009F80630052D6B
S214404D801DD1019BDBB199F8053063F3070B99F809
S214404D90043063F30F2B1FFA8BF31B4AA2F800B0C4
S214404DA0B3F5806F06D9154B98471848154B98476A
S214404DB0012018E00A2B18BF9846002301930135BE
S214404DC0ADB22E46A845B8D80C4B984742F27C1058
S214404DD00F4B9847002006E0642A8FD89BE7B8F12F
S214404DE0000FA2D1F0E705B0BDE8F08F895A400029
S214404DF000800040890F4000590F4000C55A4000CF
S214404E0044F44000795E40004223002098F440007D
S214404E1001000020F8B505460E461746047804BB48
S214404E20012A18D9013A124B9847124B9847E0B1DD
S214404E30114800230370D422427083702423C37029
S214404E403D44EB78037101223146FFF7E3FF094BFF
S214404E50984704460AE0012A08D10122044B9847A5
S214404E6004E0034B9847002400E001242046F8BDA8
S214404E70894C40007D4E4000E81B002000B585B0C0
S214404E8080238DF80830D4238DF8093000238DF820
S214404E900A3018238DF80B30012201A902A8044BD2
S214404EA098479DF80400C0F3C00005B05DF804FBC9
S214404EB0154E4000F0B585B000250E4F0E4E8DF8CD
S214404EC00850D4238DF809308DF80A5024238DF8E5
S214404ED00B30FF238DF80C30012201A902A8B847F9
S214404EE0B047034618B10134E4B2C72CE7D9184698
S214404EF005B0F0BD154E40007D4E40002DE9F04F08
S214404F0095B08A46012904D1AD48AE4B9847AE4B82
S214404F109847AE4B5B7A0D2B02D1AD48A94B9847CC
S214404F20AA4B5B7A1F2B02D1AA48A64B98478023F0
S214404F308DF84030D4238DF8413000238DF8423030
S214404F408DF843300122694610A8A34B98479DF838
S214404F500030A12B40F00A812BE000248DF8404021
S214404F60D4268DF841608DF842408DF843400223A8
S214404F708DF844300122694610A8B84780238DF842
S214404F8040308DF841608DF842408DF84340012214
S214404F90694610A8B8476B1E13F0FF0503D18F482B
S214404FA0884B984708E14846C0479DF80030A12BFB
S214404FB0D3D10025D427884EDFF844928DF8405050
S214404FC08DF841708DF8425018238DF843304023B9
S214404FD08DF84430012269460DEB0300B047662445
S214404FE0DFF8208280238DF840308DF841708DF8B0
S214404FF0425018238DF843300122694610A8B04726
S2144050009DF8003003F0C803C82B0AD0013C14F0CA
S214405010FF0403D172486B4B9847CDE04846C047E3
S214405020E0E7704BB3F80080684C42462146201DAE
S2144050306D4B984725706770A5702423E3704246F1
S21440504021462046B04738B94FF0030B0025D427F9
S214405050614EDFF8AC9107E064485A4B9847644B82
S21440506098470028AAD1EFE78DF840508DF8417058
S2144050708DF8425018238DF8433020238DF8443065
S2144050800122694610A8B0476624DFF8788180235D
S2144050908DF840308DF841708DF8425018238DF8C9
S2144050A043300122694610A8B0479DF8003003F00F
S2144050B09003902B0FD0013C14F0FF0408D14D48CC
S2144050C0404B98470BF1FF3B1BF0FF0BCCD173E0F6
S2144050D04846C047DBE780238DF84030D4238DF820
S2144050E0413000238DF8423024238DF843300A2285
S2144050F0364910A8384B98473A4B1988A1F10A030D
S2144051009BB240F2F532934203D93B482D4B984729
S21440511052E0BAF1010F04D138482A4B98472A4B3F
S214405120984700248DF840404FF0D4088DF84180D1
S2144051308DF8424018278DF8437040268DF844601D
S214405140012269460DEB0600234DA8478DF84040E6
S2144051508DF841808DF842408DF843708DF844605C
S214405160012269460DEB0600A84725E000248DF88D
S2144051704040D4268DF841608DF842408DF843403B
S21440518002238DF844300122694610A8124DA847E4
S21440519080238DF840308DF841608DF842408DF880
S2144051A043400122694610A8A8470B25DFF85890CF
S2144051B0DFF85080084FF6E615B0BDE8F08F00BF28
S2144051C0B8F44000795E4000414C4000E81B0020A7
S2144051D0C4F44000E8F44000154E40000CF5400092
S2144051E03CF54000422300206160400098F54000B6
S2144051F0B54E4000CCF540002CF6400040F640004E
S21440520037140D0001000020D34E010070B582B067
S214405210254E3046254CA047254D2846A0473046CB
S214405220A0472846A0472348A0472348A047234DE9
S2144052302846A0472248A0472248A0472248A047E1
S2144052402248A0472248A0472248A0472248A047D5
S2144052502248A0472248A0472248A0472248A047C5
S2144052602248A0472248A0472846A0472148A047B2
S2144052702148A0472148A0472148A0472148A047A9
S2144052802148A0472148A0472846A0472846A0478F
S2144052901F48A0470DF107011E481F4B98479DF831
S2144052A0070002B070BD00BF4CF64000795E40007B
S2144052B054F6400058F6400080F640009CE9400016
S2144052C0A8F64000C0F64000C8F64000E4F64000AD
S2144052D000F7400018F740003CF7400060F74000F9
S2144052E07CF7400098F74000B4F74000D0F7400005
S2144052F0F0F7400004F8400028F8400050F840001E
S21440530074F8400094F84000B8F84000E0F84000D8
S214405310F8F8400014F94000A15E400000B583B0A4
S2144053208DF80700A0F13103492B6DD8DFE803F074
S21440533025292D3135393D6C6C6C6C6C6C6C6C6C05
S2144053404145494D6C6C6C6C6C6C6C6C6C6C6C6CEC
S2144053506C6C6C5155595D6165696C6C6C6C6C6CB1
S2144053604145494D6C6C6C6C6C6C6C6C6C6C6C6CCC
S2144053706C6C6C5155595D6165692948294B984755
S2144053804BE02948274B984747E02848254B984705
S21440539043E02748234B98473FE02648214B984711
S2144053A03BE025481F4B984737E024481D4B98471D
S2144053B033E023481B4B98472FE02248194B984729
S2144053C02BE02148174B984727E02048154B984735
S2144053D023E01F48134B98471FE01E48114B984741
S2144053E01BE01D480F4B984717E01C480D4B98474D
S2144053F013E01B480B4B98470FE01A48094B984759
S2144054000BE0194B984708E001461848184B984758
S2144054100DF107011748184B984703B05DF804FB99
S21440542018F9400075324000C4E5400000E64000F0
S21440543090E640002CF940003CF9400044F940001A
S2144054404CF9400054F940005CF9400000F240003E
S21440545068F9400078F9400080F940008CF9400037
S21440546098F94000ACF9400005564000B8F94000B5
S214405470795E400038E34000A15E400070B582B0DF
S214405480012A1AD10022104B1A800E4604290ADD42
S214405490042300E02B461A461C1DA5B2B442F9DB95
S2144054A0094C238001E000221346994209D98A1A02
S2144054B001A91844054B984703E00A46A521044B2A
S2144054C0984702B070BD00BF422300202D5F4000C9
S2144054D02961400038B5012904D101221421074B27
S2144054E0984738BD064B1A685D689C68D968026064
S2144054F045608460C1601A69026138BD7D544000D1
S214405500D8050020030E0B70030C4B70030A8B70FB
S214405510C8707047030A0B704870704702780023C3
S21440552062F31F63427862F31743827862F30F2375
S214405530C27862F307031846704700BFF0B583B0E1
S214405540254D264B33F8022B6A811B68EB6005F12C
S214405550100400212046224B9847224B2A696E6948
S214405560A869E9691A605E609860D9602A6A1A611B
S214405570012108461C4B9847A81D1C4B984740BB2A
S2144055801B4A123423686568A068E168136055605A
S2144055909060D16023691361164E3378164D05EB43
S2144055A083132C330093282314211448144FB847F0
S2144055B033789B01591954F8182C5A5154F8142D25
S2144055C06668A568E0684A608E60CD6008612269BA
S2144055D04A6103B0F0BD00BFE81B0020E81F002072
S2144055E0D554400018210020FD4E40001D55400077
S2144055F00421002044230020681B0020EE1F0020CA
S214405600D14A4000F0B585B019481A4B984786B243
S2144056100EB31948194B984700218DF80F10184FB4
S214405620164D134C01313846A8479DF80F1004EB31
S21440563081008378427814F82110C0780090114891
S214405640A8479DF80F100131C9B28DF80F108BB2E4
S2144056509E42E7D802E00C48084B98470B48074B59
S21440566098470DF10F010A480A4B984705B0F0BD20
S21440567004210020194C4000D0F94000795E4000DB
S2144056807CE34000ECF9400000FA400020FA40007D
S21440569038E34000A15E40002DE9F04F85B0074654
S2144056A00091154601922C4B984784B244B9012D7F
S2144056B04BD12A482A4CA0472A48A047FF2048E01A
S2144056C02948274B984704F1FF3B1FFA8BFB0BF109
S2144056D0020B4FF0000A4FF00109214EDFF8A08080
S2144056E049462248B0471FFA8AF44FEA8905AC4239
S2144056F006DA395D4046B0470134A4B2AC42F8DB26
S21440570009F101090AF1040ACB45E9D10098144B86
S2144057109847012303AA00210846154CA047039B3F
S2144057200BB9019AA2B1581E07EB8000114B98475F
S214405730114B9847FF2818BF013007D10F48084C37
S214405740A0470848A047FF2003E00020C0B200E082
S214405750002005B0BDE8F08F194C4000C4E340007F
S214405760795E4000DCE3400064E340007CE34000B8
S214405770AD2F40001D554000314C400044FA4000DB
S2144057809CDF40000138022815D82DE9F0410E462E
S21440579014469AB10D46DFF838800C4FD8F8000012
S2144057A015F8011B3B68984700280ADBA81B013CFC
S2144057B0F4D1BDE8F0814FF0FF3070470020BDE8DF
S2144057C0F0814FF0FF30BDE8F08100BF4C24002050
S2144057D05024002010B53E2100200A4B98470A4C22
S2144057E0A0470028FCD0094B9847094A094BDA6283
S2144057F0094CA0470028FCD00120084B9847084B8E
S214405800984710BDF95840004D5940007D5940001A
S214405810023F0F0000040E4089594000415A4000A4
S214405820555A400010B50E480E4B98473E21002072
S2144058300D4B98470D4CA0470028FCD00C4B984782
S2144058400C4A0D4B9A620D4CA0470028FCD0102005
S2144058500B4B98470B4B98470148024B984710BD57
S214405860000E2707BD5C4000F95840004D594000E7
S2144058705D594000013F132000040E406D59400022
S21440588091584000A95B4000C06C7047806C7047E0
S214405890184A136B23F0700318431063936E13F08B
S2144058A0080F03D009E0013B03D11EE04FF400632C
S2144058B010498A6E12F0080FF5D00E4A136B23F08B
S2144058C0030343F002031363906E10F0080004D005
